{
  "contractName": "AutomaticPayment",
  "abi": [
    {
      "inputs": [],
      "payable": false,
      "stateMutability": "nonpayable",
      "type": "constructor"
    },
    {
      "anonymous": false,
      "inputs": [
        {
          "indexed": false,
          "internalType": "uint256",
          "name": "id",
          "type": "uint256"
        },
        {
          "indexed": false,
          "internalType": "string",
          "name": "name",
          "type": "string"
        },
        {
          "indexed": false,
          "internalType": "address",
          "name": "addr",
          "type": "address"
        },
        {
          "indexed": false,
          "internalType": "string",
          "name": "location",
          "type": "string"
        }
      ],
      "name": "FarmerAdded",
      "type": "event"
    },
    {
      "anonymous": false,
      "inputs": [
        {
          "indexed": false,
          "internalType": "uint256",
          "name": "id",
          "type": "uint256"
        },
        {
          "indexed": false,
          "internalType": "uint256",
          "name": "farmerID",
          "type": "uint256"
        },
        {
          "indexed": false,
          "internalType": "uint256",
          "name": "quantity",
          "type": "uint256"
        },
        {
          "indexed": false,
          "internalType": "enum AutomaticPayment.MilkingStatus",
          "name": "status",
          "type": "uint8"
        }
      ],
      "name": "MilkingAdded",
      "type": "event"
    },
    {
      "anonymous": false,
      "inputs": [
        {
          "indexed": false,
          "internalType": "uint256",
          "name": "id",
          "type": "uint256"
        },
        {
          "indexed": false,
          "internalType": "uint256",
          "name": "farmerID",
          "type": "uint256"
        },
        {
          "indexed": false,
          "internalType": "uint256",
          "name": "quantity",
          "type": "uint256"
        },
        {
          "indexed": false,
          "internalType": "enum AutomaticPayment.MilkingStatus",
          "name": "status",
          "type": "uint8"
        }
      ],
      "name": "MilkingUpdated",
      "type": "event"
    },
    {
      "anonymous": false,
      "inputs": [
        {
          "indexed": false,
          "internalType": "uint256",
          "name": "amount",
          "type": "uint256"
        }
      ],
      "name": "NewInvestment",
      "type": "event"
    },
    {
      "anonymous": false,
      "inputs": [
        {
          "indexed": false,
          "internalType": "uint256",
          "name": "farmerID",
          "type": "uint256"
        },
        {
          "indexed": false,
          "internalType": "uint256",
          "name": "milkingID",
          "type": "uint256"
        }
      ],
      "name": "NewPayment",
      "type": "event"
    },
    {
      "constant": true,
      "inputs": [],
      "name": "admin",
      "outputs": [
        {
          "internalType": "address",
          "name": "",
          "type": "address"
        }
      ],
      "payable": false,
      "stateMutability": "view",
      "type": "function"
    },
    {
      "constant": true,
      "inputs": [],
      "name": "farmerCount",
      "outputs": [
        {
          "internalType": "uint256",
          "name": "",
          "type": "uint256"
        }
      ],
      "payable": false,
      "stateMutability": "view",
      "type": "function"
    },
    {
      "constant": true,
      "inputs": [
        {
          "internalType": "uint256",
          "name": "",
          "type": "uint256"
        }
      ],
      "name": "farmers",
      "outputs": [
        {
          "internalType": "uint256",
          "name": "id",
          "type": "uint256"
        },
        {
          "internalType": "string",
          "name": "name",
          "type": "string"
        },
        {
          "internalType": "address",
          "name": "addr",
          "type": "address"
        },
        {
          "internalType": "string",
          "name": "location",
          "type": "string"
        },
        {
          "internalType": "uint256",
          "name": "milking_count",
          "type": "uint256"
        }
      ],
      "payable": false,
      "stateMutability": "view",
      "type": "function"
    },
    {
      "constant": true,
      "inputs": [],
      "name": "investmentCount",
      "outputs": [
        {
          "internalType": "uint256",
          "name": "",
          "type": "uint256"
        }
      ],
      "payable": false,
      "stateMutability": "view",
      "type": "function"
    },
    {
      "constant": true,
      "inputs": [
        {
          "internalType": "uint256",
          "name": "",
          "type": "uint256"
        }
      ],
      "name": "investments",
      "outputs": [
        {
          "internalType": "uint256",
          "name": "id",
          "type": "uint256"
        },
        {
          "internalType": "address",
          "name": "investorAddr",
          "type": "address"
        },
        {
          "internalType": "uint256",
          "name": "amount",
          "type": "uint256"
        },
        {
          "internalType": "uint256",
          "name": "expectation",
          "type": "uint256"
        }
      ],
      "payable": false,
      "stateMutability": "view",
      "type": "function"
    },
    {
      "constant": true,
      "inputs": [
        {
          "internalType": "uint256",
          "name": "",
          "type": "uint256"
        }
      ],
      "name": "milking",
      "outputs": [
        {
          "internalType": "uint256",
          "name": "id",
          "type": "uint256"
        },
        {
          "internalType": "uint256",
          "name": "farmerID",
          "type": "uint256"
        },
        {
          "internalType": "uint256",
          "name": "quantity",
          "type": "uint256"
        },
        {
          "internalType": "enum AutomaticPayment.MilkingStatus",
          "name": "status",
          "type": "uint8"
        }
      ],
      "payable": false,
      "stateMutability": "view",
      "type": "function"
    },
    {
      "constant": true,
      "inputs": [],
      "name": "milkingCount",
      "outputs": [
        {
          "internalType": "uint256",
          "name": "",
          "type": "uint256"
        }
      ],
      "payable": false,
      "stateMutability": "view",
      "type": "function"
    },
    {
      "constant": true,
      "inputs": [
        {
          "internalType": "uint256",
          "name": "",
          "type": "uint256"
        }
      ],
      "name": "payments",
      "outputs": [
        {
          "internalType": "uint256",
          "name": "milkingID",
          "type": "uint256"
        },
        {
          "internalType": "uint256",
          "name": "farmerID",
          "type": "uint256"
        },
        {
          "internalType": "uint256",
          "name": "quantity",
          "type": "uint256"
        },
        {
          "internalType": "uint256",
          "name": "payAmount",
          "type": "uint256"
        }
      ],
      "payable": false,
      "stateMutability": "view",
      "type": "function"
    },
    {
      "constant": false,
      "inputs": [
        {
          "internalType": "uint256",
          "name": "_amount",
          "type": "uint256"
        }
      ],
      "name": "invest",
      "outputs": [],
      "payable": true,
      "stateMutability": "payable",
      "type": "function"
    },
    {
      "constant": true,
      "inputs": [],
      "name": "getInvestmentCount",
      "outputs": [
        {
          "internalType": "uint256",
          "name": "count",
          "type": "uint256"
        }
      ],
      "payable": false,
      "stateMutability": "view",
      "type": "function"
    },
    {
      "constant": true,
      "inputs": [
        {
          "internalType": "uint256",
          "name": "_investmentID",
          "type": "uint256"
        }
      ],
      "name": "getInvestment",
      "outputs": [
        {
          "internalType": "address",
          "name": "investor",
          "type": "address"
        },
        {
          "internalType": "uint256",
          "name": "amount",
          "type": "uint256"
        },
        {
          "internalType": "uint256",
          "name": "expectation",
          "type": "uint256"
        }
      ],
      "payable": false,
      "stateMutability": "view",
      "type": "function"
    },
    {
      "constant": true,
      "inputs": [],
      "name": "contractBalance",
      "outputs": [
        {
          "internalType": "uint256",
          "name": "_balance",
          "type": "uint256"
        }
      ],
      "payable": false,
      "stateMutability": "view",
      "type": "function"
    },
    {
      "constant": false,
      "inputs": [
        {
          "internalType": "string",
          "name": "_name",
          "type": "string"
        },
        {
          "internalType": "string",
          "name": "_location",
          "type": "string"
        }
      ],
      "name": "addFarmer",
      "outputs": [],
      "payable": false,
      "stateMutability": "nonpayable",
      "type": "function"
    },
    {
      "constant": true,
      "inputs": [],
      "name": "getFarmerCount",
      "outputs": [
        {
          "internalType": "uint256",
          "name": "count",
          "type": "uint256"
        }
      ],
      "payable": false,
      "stateMutability": "view",
      "type": "function"
    },
    {
      "constant": false,
      "inputs": [
        {
          "internalType": "uint256",
          "name": "_farmerID",
          "type": "uint256"
        }
      ],
      "name": "addMilkingActivity",
      "outputs": [],
      "payable": false,
      "stateMutability": "nonpayable",
      "type": "function"
    },
    {
      "constant": true,
      "inputs": [],
      "name": "getMilkingCount",
      "outputs": [
        {
          "internalType": "uint256",
          "name": "count",
          "type": "uint256"
        }
      ],
      "payable": false,
      "stateMutability": "view",
      "type": "function"
    },
    {
      "constant": false,
      "inputs": [
        {
          "internalType": "uint256",
          "name": "_milkingID",
          "type": "uint256"
        },
        {
          "internalType": "uint256",
          "name": "_farmerID",
          "type": "uint256"
        },
        {
          "internalType": "uint256",
          "name": "_quantity",
          "type": "uint256"
        }
      ],
      "name": "updateMilkingByID",
      "outputs": [],
      "payable": false,
      "stateMutability": "nonpayable",
      "type": "function"
    },
    {
      "constant": true,
      "inputs": [],
      "name": "getTotalMilk",
      "outputs": [
        {
          "internalType": "uint256",
          "name": "milk",
          "type": "uint256"
        }
      ],
      "payable": false,
      "stateMutability": "view",
      "type": "function"
    },
    {
      "constant": true,
      "inputs": [
        {
          "internalType": "uint256",
          "name": "_milkingID",
          "type": "uint256"
        }
      ],
      "name": "viewPayment",
      "outputs": [
        {
          "internalType": "uint256",
          "name": "farmerID",
          "type": "uint256"
        },
        {
          "internalType": "uint256",
          "name": "quantity",
          "type": "uint256"
        },
        {
          "internalType": "uint256",
          "name": "payAmount",
          "type": "uint256"
        }
      ],
      "payable": false,
      "stateMutability": "view",
      "type": "function"
    },
    {
      "constant": true,
      "inputs": [
        {
          "internalType": "uint256",
          "name": "_farmerID",
          "type": "uint256"
        }
      ],
      "name": "getFarmerBalance",
      "outputs": [
        {
          "internalType": "uint256",
          "name": "_balance",
          "type": "uint256"
        }
      ],
      "payable": false,
      "stateMutability": "view",
      "type": "function"
    },
    {
      "constant": false,
      "inputs": [],
      "name": "distributeMilk",
      "outputs": [
        {
          "internalType": "uint256",
          "name": "_investmentToSatisfy",
          "type": "uint256"
        },
        {
          "internalType": "uint256",
          "name": "_totalMilk",
          "type": "uint256"
        }
      ],
      "payable": false,
      "stateMutability": "nonpayable",
      "type": "function"
    }
  ],
  "bytecode": "0x6080604052600160025534801561001557600080fd5b50336000806101000a81548173ffffffffffffffffffffffffffffffffffffffff021916908373ffffffffffffffffffffffffffffffffffffffff160217905550611b46806100656000396000f3fe6080604052600436106101295760003560e01c8063991cd78b116100ab578063bd45b3971161006f578063bd45b39714610741578063c4a8b5d51461076c578063da73b85614610797578063f7373b64146107c9578063f851a4401461083b578063fd345c8a1461089257610129565b8063991cd78b146104e05780639925df971461063f578063a5b91d141461068e578063b8726d0f146106eb578063b8d846971461071657610129565b806387d81789116100f257806387d81789146102765780638afdd669146102da5780638b3e43341461043b5780638b7afe2e1461048a5780639361c434146104b557610129565b80621fdabf1461012e57806322ae634f14610169578063246b0e5c146101f25780632a439eed1461021d5780632afcf48014610248575b600080fd5b34801561013a57600080fd5b506101676004803603602081101561015157600080fd5b8101908080359060200190929190505050610922565b005b34801561017557600080fd5b506101a26004803603602081101561018c57600080fd5b8101908080359060200190929190505050610a26565b604051808473ffffffffffffffffffffffffffffffffffffffff1673ffffffffffffffffffffffffffffffffffffffff168152602001838152602001828152602001935050505060405180910390f35b3480156101fe57600080fd5b50610207610a9d565b6040518082815260200191505060405180910390f35b34801561022957600080fd5b50610232610aa3565b6040518082815260200191505060405180910390f35b6102746004803603602081101561025e57600080fd5b8101908080359060200190929190505050610aad565b005b34801561028257600080fd5b506102af6004803603602081101561029957600080fd5b8101908080359060200190929190505050610ba0565b6040518085815260200184815260200183815260200182815260200194505050505060405180910390f35b3480156102e657600080fd5b50610313600480360360208110156102fd57600080fd5b8101908080359060200190929190505050610bd0565b60405180868152602001806020018573ffffffffffffffffffffffffffffffffffffffff1673ffffffffffffffffffffffffffffffffffffffff16815260200180602001848152602001838103835287818151815260200191508051906020019080838360005b8381101561039557808201518184015260208101905061037a565b50505050905090810190601f1680156103c25780820380516001836020036101000a031916815260200191505b50838103825285818151815260200191508051906020019080838360005b838110156103fb5780820151818401526020810190506103e0565b50505050905090810190601f1680156104285780820380516001836020036101000a031916815260200191505b5097505050505050505060405180910390f35b34801561044757600080fd5b506104886004803603606081101561045e57600080fd5b81019080803590602001909291908035906020019092919080359060200190929190505050610d56565b005b34801561049657600080fd5b5061049f610f23565b6040518082815260200191505060405180910390f35b3480156104c157600080fd5b506104ca610f2b565b6040518082815260200191505060405180910390f35b3480156104ec57600080fd5b5061063d6004803603604081101561050357600080fd5b810190808035906020019064010000000081111561052057600080fd5b82018360208201111561053257600080fd5b8035906020019184600183028401116401000000008311171561055457600080fd5b91908080601f016020809104026020016040519081016040528093929190818152602001838380828437600081840152601f19601f820116905080830192505050505050509192919290803590602001906401000000008111156105b757600080fd5b8201836020820111156105c957600080fd5b803590602001918460018302840111640100000000831117156105eb57600080fd5b91908080601f016020809104026020016040519081016040528093929190818152602001838380828437600081840152601f19601f820116905080830192505050505050509192919290505050610f31565b005b34801561064b57600080fd5b506106786004803603602081101561066257600080fd5b810190808035906020019092919050505061117b565b6040518082815260200191505060405180910390f35b34801561069a57600080fd5b506106c7600480360360208110156106b157600080fd5b8101908080359060200190929190505050611240565b60405180848152602001838152602001828152602001935050505060405180910390f35b3480156106f757600080fd5b5061070061133c565b6040518082815260200191505060405180910390f35b34801561072257600080fd5b5061072b611346565b6040518082815260200191505060405180910390f35b34801561074d57600080fd5b50610756611350565b6040518082815260200191505060405180910390f35b34801561077857600080fd5b50610781611356565b6040518082815260200191505060405180910390f35b3480156107a357600080fd5b506107ac611360565b604051808381526020018281526020019250505060405180910390f35b3480156107d557600080fd5b50610802600480360360208110156107ec57600080fd5b8101908080359060200190929190505050611673565b6040518085815260200184815260200183815260200182600281111561082457fe5b60ff16815260200194505050505060405180910390f35b34801561084757600080fd5b506108506116b0565b604051808273ffffffffffffffffffffffffffffffffffffffff1673ffffffffffffffffffffffffffffffffffffffff16815260200191505060405180910390f35b34801561089e57600080fd5b506108cb600480360360208110156108b557600080fd5b81019080803590602001909291905050506116d5565b604051808581526020018473ffffffffffffffffffffffffffffffffffffffff1673ffffffffffffffffffffffffffffffffffffffff16815260200183815260200182815260200194505050505060405180910390f35b60086000815480929190600101919050555060405180608001604052806008548152602001828152602001600081526020016000600281111561096157fe5b81525060076000600854815260200190815260200160002060008201518160000155602082015181600101556040820151816002015560608201518160030160006101000a81548160ff021916908360028111156109bb57fe5b02179055509050507f8181afd8e5a058b4804a6614cd923fa69835423d05fe1f5fbd30febd4e13561d6008548260008060405180858152602001848152602001838152602001826002811115610a0d57fe5b60ff16815260200194505050505060405180910390a150565b60008060006003600085815260200190815260200160002060010160009054906101000a900473ffffffffffffffffffffffffffffffffffffffff16600360008681526020019081526020016000206002015460036000878152602001908152602001600020600301549250925092509193909250565b60045481565b6000600154905090565b803414610ab957600080fd5b6004600081548092919060010191905055503360036000600454815260200190815260200160002060010160006101000a81548173ffffffffffffffffffffffffffffffffffffffff021916908373ffffffffffffffffffffffffffffffffffffffff160217905550806003600060045481526020019081526020016000206002018190555060648181610b4957fe5b04600360006004548152602001908152602001600020600301819055507f387c02e3acf09de4e6ae95a66560ef4ddd5d6753d186b6019b4e59dbf5821ead816040518082815260200191505060405180910390a150565b60096020528060005260406000206000915090508060000154908060010154908060020154908060030154905084565b6005602052806000526040600020600091509050806000015490806001018054600181600116156101000203166002900480601f016020809104026020016040519081016040528092919081815260200182805460018160011615610100020316600290048015610c825780601f10610c5757610100808354040283529160200191610c82565b820191906000526020600020905b815481529060010190602001808311610c6557829003601f168201915b5050505050908060020160009054906101000a900473ffffffffffffffffffffffffffffffffffffffff1690806003018054600181600116156101000203166002900480601f016020809104026020016040519081016040528092919081815260200182805460018160011615610100020316600290048015610d465780601f10610d1b57610100808354040283529160200191610d46565b820191906000526020600020905b815481529060010190602001808311610d2957829003601f168201915b5050505050908060040154905085565b81600760008581526020019081526020016000206001015414610dc4576040517f08c379a0000000000000000000000000000000000000000000000000000000008152600401808060200182810382526036815260200180611a2d6036913960400191505060405180910390fd5b60006002811115610dd157fe5b6007600085815260200190815260200160002060030160009054906101000a900460ff166002811115610e0057fe5b14610e56576040517f08c379a000000000000000000000000000000000000000000000000000000000815260040180806020018281038252603e8152602001806119ef603e913960400191505060405180910390fd5b80600760008581526020019081526020016000206002018190555060016007600085815260200190815260200160002060030160006101000a81548160ff02191690836002811115610ea457fe5b02179055508060015401600181905550610ebe8284611725565b7f08153fa6bf2aa0b5120880e44639943e66f59045ab39e106f57f16c691391cf26008548383600060405180858152602001848152602001838152602001826002811115610f0857fe5b60ff16815260200194505050505060405180910390a1505050565b600047905090565b60085481565b6006600081548092919060010191905055506040518060a0016040528060065481526020018381526020013373ffffffffffffffffffffffffffffffffffffffff1681526020018281526020016000815250600560006006548152602001908152602001600020600082015181600001556020820151816001019080519060200190610fbe929190611949565b5060408201518160020160006101000a81548173ffffffffffffffffffffffffffffffffffffffff021916908373ffffffffffffffffffffffffffffffffffffffff1602179055506060820151816003019080519060200190611022929190611949565b50608082015181600401559050507f2c23a012bba1b1f6dc5942fedb63052bc131011a95a281a82aad3bba175083c760065483338460405180858152602001806020018473ffffffffffffffffffffffffffffffffffffffff1673ffffffffffffffffffffffffffffffffffffffff16815260200180602001838103835286818151815260200191508051906020019080838360005b838110156110d35780820151818401526020810190506110b8565b50505050905090810190601f1680156111005780820380516001836020036101000a031916815260200191505b50838103825284818151815260200191508051906020019080838360005b8381101561113957808201518184015260208101905061111e565b50505050905090810190601f1680156111665780820380516001836020036101000a031916815260200191505b50965050505050505060405180910390a15050565b60006005600083815260200190815260200160002060020160009054906101000a900473ffffffffffffffffffffffffffffffffffffffff1673ffffffffffffffffffffffffffffffffffffffff163373ffffffffffffffffffffffffffffffffffffffff16146111eb57600080fd5b6005600083815260200190815260200160002060020160009054906101000a900473ffffffffffffffffffffffffffffffffffffffff1673ffffffffffffffffffffffffffffffffffffffff16319050919050565b60008060008060009054906101000a900473ffffffffffffffffffffffffffffffffffffffff1673ffffffffffffffffffffffffffffffffffffffff163373ffffffffffffffffffffffffffffffffffffffff16146112ea576040517f08c379a0000000000000000000000000000000000000000000000000000000008152600401808060200182810382526032815260200180611a636032913960400191505060405180910390fd5b6009600085815260200190815260200160002060010154600960008681526020019081526020016000206002015460096000878152602001908152602001600020600301549250925092509193909250565b6000600854905090565b6000600454905090565b60065481565b6000600654905090565b6000806000809054906101000a900473ffffffffffffffffffffffffffffffffffffffff1673ffffffffffffffffffffffffffffffffffffffff163373ffffffffffffffffffffffffffffffffffffffff16146113bc57600080fd5b6004546002541115611419576040517f08c379a000000000000000000000000000000000000000000000000000000000815260040180806020018281038252603d815260200180611ad5603d913960400191505060405180910390fd5b600060015411611491576040517f08c379a000000000000000000000000000000000000000000000000000000000815260040180806020018281038252601f8152602001807f5468657265206973206e6f206d696c6b20617661696c61626c65206e6f772e0081525060200191505060405180910390fd5b60036000600254815260200190815260200160002060030154600154111561156c5760036000600254815260200190815260200160002060030154600154036001819055506000600360006002548152602001908152602001600020600301819055506003600060025481526020019081526020016000206000808201600090556001820160006101000a81549073ffffffffffffffffffffffffffffffffffffffff0219169055600282016000905560038201600090555050600260008154809291906001019190505550611565611360565b5050611665565b6003600060025481526020019081526020016000206003015460015414156116225760006001819055506000600360006002548152602001908152602001600020600301819055506003600060025481526020019081526020016000206000808201600090556001820160006101000a81549073ffffffffffffffffffffffffffffffffffffffff0219169055600282016000905560038201600090555050600260008154809291906001019190505550611664565b60006001819055506001546003600060025481526020019081526020016000206003015403600360006002548152602001908152602001600020600301819055505b5b600254600154915091509091565b60076020528060005260406000206000915090508060000154908060010154908060020154908060030160009054906101000a900460ff16905084565b6000809054906101000a900473ffffffffffffffffffffffffffffffffffffffff1681565b60036020528060005260406000206000915090508060000154908060010160009054906101000a900473ffffffffffffffffffffffffffffffffffffffff16908060020154908060030154905084565b600854811115801561177057506001600281111561173f57fe5b6007600083815260200190815260200160002060030160009054906101000a900460ff16600281111561176e57fe5b145b6117c5576040517f08c379a0000000000000000000000000000000000000000000000000000000008152600401808060200182810382526040815260200180611a956040913960400191505060405180910390fd5b60006005600084815260200190815260200160002060020160009054906101000a900473ffffffffffffffffffffffffffffffffffffffff1690506000606460076000858152602001908152602001600020600201540290508173ffffffffffffffffffffffffffffffffffffffff166108fc829081150290604051600060405180830381858888f19350505050158015611864573d6000803e3d6000fd5b5060026007600085815260200190815260200160002060030160006101000a81548160ff0219169083600281111561189857fe5b0217905550826009600086815260200190815260200160002060000181905550600760008481526020019081526020016000206002015460096000868152602001908152602001600020600201819055508060096000868152602001908152602001600020600301819055507fa8e6f9f627e4d2eb0f2887148343c7db7d11e76bdf6b93363126267954a42a518484604051808381526020018281526020019250505060405180910390a150505050565b828054600181600116156101000203166002900490600052602060002090601f016020900481019282601f1061198a57805160ff19168380011785556119b8565b828001600101855582156119b8579182015b828111156119b757825182559160200191906001019061199c565b5b5090506119c591906119c9565b5090565b6119eb91905b808211156119e75760008160009055506001016119cf565b5090565b9056fe506c6561736520656e74657220612076616c6964206d696c6b696e672061637469766974792077686f73652073746174757320697320535441525445442e506c6561736520656e74657220612076616c6964206d696c6b696e6720616374697669747920756e64657220796f7572206e616d652e4f6e6c792074686520636f6e7472616374206f776e65722063616e20636865636b207061796d656e742064657461696c732e506c6561736520656e74657220612076616c6964206d696c6b696e672061637469766974792077686f73652073746174757320697320434f4d504c455445442e54686520696e7665746d656e7420494420656e74657272656420657863656564732074686520746f74616c20696e766573746d656e7420636f756e742ea265627a7a72315820431cd36ce0e5f22f1855fb63d24644a3368c0e876a7459d035185d1e3f3ad71f64736f6c63430005100032",
  "source": "// SPDX-License-Identifier: <SPDX-License>\n/**\n * Functionalities:\n * 1. Register a list of farmers, their names,Ethereum addresses (for payment), locations, number of milking activities.\n * 2. Each milking activity is a struct containing: id, farmer id, milking status.\n * 3. Milking status has 3 possible values: STARTED, COMPLETED, PAID; only COMPLETED milking activities can be paid and changed to PAID. Payment amount for milking activities is calculated by quantity * pricePerKilo.\n * 3. Multiple investors can deposit money to the smart contract. The totalMilk is distributed to investors based on amount of their investments. The investments are satisfied on a first-come, first-serve basis. Satisfied investments are removed from the storage.\n * 4. Corresponding events are emitted.\n**/\n\npragma solidity >=0.4.22;\n\ncontract AutomaticPayment {\n    address public admin;\n    \n    uint constant pricePerKilo = 100;\n    uint totalMilk;\n    uint investmentToSatisfy = 1; // default value; automatically updated after milk is distributed by calling the distributeMilk function\n    \n    enum MilkingStatus {\n        STARTED,\n        COMPLETED,\n        PAID\n    }\n    \n    struct Investment {\n        uint id;\n        address investorAddr;\n        uint amount; // amount of Wei invested\n        uint expectation; // how much milk is expected (in kilo)\n    }\n\n    struct Farmer {\n        uint id;\n        string name;\n        address addr;\n        string location;\n        uint milking_count;\n    }\n\n    struct MilkingActivity {\n        uint id;\n        uint farmerID;\n        uint quantity;\n        MilkingStatus status;\n    }\n    \n    struct Payment {\n        uint milkingID;\n        uint farmerID;\n        uint quantity;\n        uint payAmount;\n    }\n    \n    mapping (uint => Investment) public investments;\n    uint public investmentCount;\n    \n    mapping (uint => Farmer) public farmers; // store Farmers\n    uint public farmerCount;\n\n    mapping (uint => MilkingActivity) public milking;\n    uint public milkingCount;\n    \n    mapping (uint => Payment) public payments;\n    \n    event NewInvestment (\n        uint amount\n    );\n    \n    event FarmerAdded (\n        uint id,\n        string name,\n        address addr,\n        string location\n    );\n    \n    event MilkingAdded (\n        uint id,\n        uint farmerID,\n        uint quantity,\n        MilkingStatus status\n    );\n    \n    event MilkingUpdated (\n        uint id,\n        uint farmerID,\n        uint quantity,\n        MilkingStatus status\n    );\n    \n    event NewPayment (\n        uint farmerID,\n        uint milkingID\n    );\n\n    constructor() public {\n        admin = msg.sender;\n    }\n    \n    // can be called by multiple investors\n    function invest(uint _amount) external payable {\n        require(\n            msg.value == _amount\n        );\n        \n        investmentCount++;\n        investments[investmentCount].investorAddr = msg.sender;\n        investments[investmentCount].amount = _amount;\n        investments[investmentCount].expectation = _amount/pricePerKilo; // assuming all integer values\n        \n        emit NewInvestment(_amount);\n    }\n\n    function getInvestmentCount() external view returns (uint count) {\n        return investmentCount;\n    }\n\n    function getInvestment(uint _investmentID) external view \n        returns (\n            address investor,\n            uint amount,\n            uint expectation\n        ) {\n            return (investments[_investmentID].investorAddr, investments[_investmentID].amount, investments[_investmentID].expectation);\n    }\n\n    function contractBalance() external view returns (uint _balance){\n        return address(this).balance;\n    }\n\n    function addFarmer (string memory _name, string memory _location) public {\n        farmerCount++;\n        farmers[farmerCount] = Farmer(farmerCount, _name, msg.sender, _location, 0);\n        \n        emit FarmerAdded(farmerCount, _name, msg.sender, _location);\n    }\n\n    function getFarmerCount() external view returns (uint count) {\n        return farmerCount;\n    }\n\n    function addMilkingActivity (uint _farmerID) public {\n        milkingCount++;\n        milking[milkingCount] = MilkingActivity(milkingCount, _farmerID, 0, MilkingStatus.STARTED); // update milking\n        \n        emit MilkingAdded(milkingCount, _farmerID, 0, MilkingStatus.STARTED);\n    }\n\n    function getMilkingCount() external view returns (uint count) {\n        return milkingCount;\n    }\n    \n    // only farmer of a particular milking activity can update its status\n    // only milking activities that are STARTED can be updated to COMPLETED\n    function updateMilkingByID (uint _milkingID, uint _farmerID, uint _quantity) public {\n        require(\n            milking[_milkingID].farmerID == _farmerID,\n            \"Please enter a valid milking activity under your name.\"\n        );\n        \n        require(\n            milking[_milkingID].status == MilkingStatus.STARTED,\n            \"Please enter a valid milking activity whose status is STARTED.\"\n        );\n        \n        milking[_milkingID].quantity = _quantity;\n        milking[_milkingID].status = MilkingStatus.COMPLETED;\n        totalMilk = totalMilk + _quantity; // update totalMilk for distribution\n        \n        payFarmer(_farmerID, _milkingID);\n        \n        emit MilkingUpdated(milkingCount, _farmerID, _quantity, MilkingStatus.STARTED);\n    }\n\n    function getTotalMilk() external view returns (uint milk) {\n        return totalMilk;\n    }\n\n    // called automatically when the status of a milking activity becomes COMPLETED\n    function payFarmer(uint _farmerID, uint _milkingID) private {\n        require(\n            _milkingID <= milkingCount &&\n            milking[_milkingID].status == MilkingStatus.COMPLETED,\n            \"Please enter a valid milking activity whose status is COMPLETED.\"\n        );\n        \n        address payable recipient = address(uint160(farmers[_farmerID].addr));\n        uint amount = milking[_milkingID].quantity * pricePerKilo;\n        \n        recipient.transfer(amount);\n        milking[_milkingID].status = MilkingStatus.PAID;\n        \n        payments[_farmerID].milkingID = _milkingID;\n        payments[_farmerID].quantity = milking[_milkingID].quantity;\n        payments[_farmerID].payAmount = amount;\n        \n        emit NewPayment(_farmerID, _milkingID);\n    }\n    \n    function viewPayment(uint _milkingID) external view \n        returns (\n            uint farmerID,\n            uint quantity,\n            uint payAmount\n        ) \n    {\n        require(\n            msg.sender == admin,\n            \"Only the contract owner can check payment details.\"\n        );\n        \n        return (payments[_milkingID].farmerID, payments[_milkingID].quantity, payments[_milkingID].payAmount);\n    }\n\n    function getFarmerBalance(uint _farmerID) external view returns (uint _balance) {\n        require(\n            msg.sender == farmers[_farmerID].addr\n        );\n\n        return farmers[_farmerID].addr.balance;\n    }\n    \n    // called by the contract owner after collecting a number of investments and some quantity of milk\n    // returns the next investmentToSatisfy and totalMilk remaining \n    function distributeMilk () public returns (uint _investmentToSatisfy, uint _totalMilk) {\n        require(\n            msg.sender == admin\n        );\n        \n        require(\n            investmentToSatisfy <= investmentCount,\n            \"The invetment ID enterred exceeds the total investment count.\"\n        );\n        \n        require(\n            totalMilk > 0,\n            \"There is no milk available now.\"\n        );\n        \n        if (totalMilk > investments[investmentToSatisfy].expectation) {\n            totalMilk = totalMilk - investments[investmentToSatisfy].expectation;\n            investments[investmentToSatisfy].expectation = 0; // set to 0 as expectation is satisfied\n            delete investments[investmentToSatisfy]; // delete satisfied investment from mapping\n            investmentToSatisfy++;\n            \n            distributeMilk(); // if there is remaning milk, process the next investment \n            \n        } else if (totalMilk == investments[investmentToSatisfy].expectation) {\n            totalMilk = 0;\n            investments[investmentToSatisfy].expectation = 0;\n            delete investments[investmentToSatisfy];\n            investmentToSatisfy++;\n        } else {\n            totalMilk = 0;\n            investments[investmentToSatisfy].expectation = investments[investmentToSatisfy].expectation - totalMilk;\n        }\n        \n        return (investmentToSatisfy, totalMilk); //return the id of the next investmentToSatisfy\n    }\n\n}\n",
  "sourcePath": "/Users/yininghu/Documents/work/dairy-provenance/contracts/AutomaticPayment.sol",
  "compiler": {
    "name": "solc",
    "version": "0.5.16+commit.9c3226ce.Emscripten.clang"
  },
  "schemaVersion": "3.4.1",
  "updatedAt": "2021-06-08T06:02:37.771Z",
  "devdoc": {
    "methods": {}
  },
  "userdoc": {
    "methods": {}
  }
}