{
  "contractName": "AutomaticPayment",
  "abi": [
    {
      "inputs": [
        {
          "internalType": "contract FarmToken",
          "name": "_tokenContract",
          "type": "address"
        }
      ],
      "payable": false,
      "stateMutability": "nonpayable",
      "type": "constructor"
    },
    {
      "anonymous": false,
      "inputs": [
        {
          "indexed": false,
          "internalType": "uint256",
          "name": "id",
          "type": "uint256"
        },
        {
          "indexed": false,
          "internalType": "string",
          "name": "name",
          "type": "string"
        },
        {
          "indexed": false,
          "internalType": "address",
          "name": "addr",
          "type": "address"
        },
        {
          "indexed": false,
          "internalType": "string",
          "name": "location",
          "type": "string"
        }
      ],
      "name": "FarmerAdded",
      "type": "event"
    },
    {
      "anonymous": false,
      "inputs": [
        {
          "indexed": false,
          "internalType": "uint256",
          "name": "id",
          "type": "uint256"
        },
        {
          "indexed": false,
          "internalType": "uint256",
          "name": "farmerID",
          "type": "uint256"
        },
        {
          "indexed": false,
          "internalType": "uint256",
          "name": "quantity",
          "type": "uint256"
        },
        {
          "indexed": false,
          "internalType": "enum AutomaticPayment.MilkingStatus",
          "name": "status",
          "type": "uint8"
        }
      ],
      "name": "MilkingAdded",
      "type": "event"
    },
    {
      "anonymous": false,
      "inputs": [
        {
          "indexed": false,
          "internalType": "uint256",
          "name": "id",
          "type": "uint256"
        },
        {
          "indexed": false,
          "internalType": "uint256",
          "name": "farmerID",
          "type": "uint256"
        },
        {
          "indexed": false,
          "internalType": "uint256",
          "name": "quantity",
          "type": "uint256"
        },
        {
          "indexed": false,
          "internalType": "enum AutomaticPayment.MilkingStatus",
          "name": "status",
          "type": "uint8"
        }
      ],
      "name": "MilkingUpdated",
      "type": "event"
    },
    {
      "anonymous": false,
      "inputs": [
        {
          "indexed": false,
          "internalType": "uint256",
          "name": "amount",
          "type": "uint256"
        }
      ],
      "name": "NewInvestment",
      "type": "event"
    },
    {
      "anonymous": false,
      "inputs": [
        {
          "indexed": false,
          "internalType": "uint256",
          "name": "farmerID",
          "type": "uint256"
        },
        {
          "indexed": false,
          "internalType": "uint256",
          "name": "milkingID",
          "type": "uint256"
        }
      ],
      "name": "NewPayment",
      "type": "event"
    },
    {
      "constant": true,
      "inputs": [],
      "name": "admin",
      "outputs": [
        {
          "internalType": "address",
          "name": "",
          "type": "address"
        }
      ],
      "payable": false,
      "stateMutability": "view",
      "type": "function"
    },
    {
      "constant": true,
      "inputs": [],
      "name": "farmerCount",
      "outputs": [
        {
          "internalType": "uint256",
          "name": "",
          "type": "uint256"
        }
      ],
      "payable": false,
      "stateMutability": "view",
      "type": "function"
    },
    {
      "constant": true,
      "inputs": [
        {
          "internalType": "uint256",
          "name": "",
          "type": "uint256"
        }
      ],
      "name": "farmers",
      "outputs": [
        {
          "internalType": "uint256",
          "name": "id",
          "type": "uint256"
        },
        {
          "internalType": "string",
          "name": "name",
          "type": "string"
        },
        {
          "internalType": "address",
          "name": "addr",
          "type": "address"
        },
        {
          "internalType": "string",
          "name": "location",
          "type": "string"
        },
        {
          "internalType": "uint256",
          "name": "milking_count",
          "type": "uint256"
        }
      ],
      "payable": false,
      "stateMutability": "view",
      "type": "function"
    },
    {
      "constant": true,
      "inputs": [],
      "name": "investmentCount",
      "outputs": [
        {
          "internalType": "uint256",
          "name": "",
          "type": "uint256"
        }
      ],
      "payable": false,
      "stateMutability": "view",
      "type": "function"
    },
    {
      "constant": true,
      "inputs": [
        {
          "internalType": "uint256",
          "name": "",
          "type": "uint256"
        }
      ],
      "name": "investments",
      "outputs": [
        {
          "internalType": "uint256",
          "name": "id",
          "type": "uint256"
        },
        {
          "internalType": "address",
          "name": "investorAddr",
          "type": "address"
        },
        {
          "internalType": "uint256",
          "name": "amount",
          "type": "uint256"
        },
        {
          "internalType": "uint256",
          "name": "expectation",
          "type": "uint256"
        }
      ],
      "payable": false,
      "stateMutability": "view",
      "type": "function"
    },
    {
      "constant": true,
      "inputs": [
        {
          "internalType": "uint256",
          "name": "",
          "type": "uint256"
        }
      ],
      "name": "milking",
      "outputs": [
        {
          "internalType": "uint256",
          "name": "id",
          "type": "uint256"
        },
        {
          "internalType": "uint256",
          "name": "farmerID",
          "type": "uint256"
        },
        {
          "internalType": "uint256",
          "name": "quantity",
          "type": "uint256"
        },
        {
          "internalType": "enum AutomaticPayment.MilkingStatus",
          "name": "status",
          "type": "uint8"
        }
      ],
      "payable": false,
      "stateMutability": "view",
      "type": "function"
    },
    {
      "constant": true,
      "inputs": [],
      "name": "milkingCount",
      "outputs": [
        {
          "internalType": "uint256",
          "name": "",
          "type": "uint256"
        }
      ],
      "payable": false,
      "stateMutability": "view",
      "type": "function"
    },
    {
      "constant": true,
      "inputs": [
        {
          "internalType": "uint256",
          "name": "",
          "type": "uint256"
        }
      ],
      "name": "payments",
      "outputs": [
        {
          "internalType": "uint256",
          "name": "milkingID",
          "type": "uint256"
        },
        {
          "internalType": "uint256",
          "name": "farmerID",
          "type": "uint256"
        },
        {
          "internalType": "uint256",
          "name": "quantity",
          "type": "uint256"
        },
        {
          "internalType": "uint256",
          "name": "payAmount",
          "type": "uint256"
        }
      ],
      "payable": false,
      "stateMutability": "view",
      "type": "function"
    },
    {
      "constant": true,
      "inputs": [],
      "name": "tokenContract",
      "outputs": [
        {
          "internalType": "contract FarmToken",
          "name": "",
          "type": "address"
        }
      ],
      "payable": false,
      "stateMutability": "view",
      "type": "function"
    },
    {
      "constant": false,
      "inputs": [
        {
          "internalType": "uint256",
          "name": "_numOfTokens",
          "type": "uint256"
        }
      ],
      "name": "buyTokens",
      "outputs": [],
      "payable": true,
      "stateMutability": "payable",
      "type": "function"
    },
    {
      "constant": false,
      "inputs": [
        {
          "internalType": "uint256",
          "name": "_amount",
          "type": "uint256"
        }
      ],
      "name": "invest",
      "outputs": [],
      "payable": true,
      "stateMutability": "payable",
      "type": "function"
    },
    {
      "constant": true,
      "inputs": [],
      "name": "getInvestmentCount",
      "outputs": [
        {
          "internalType": "uint256",
          "name": "",
          "type": "uint256"
        }
      ],
      "payable": false,
      "stateMutability": "view",
      "type": "function"
    },
    {
      "constant": true,
      "inputs": [
        {
          "internalType": "uint256",
          "name": "_investmentID",
          "type": "uint256"
        }
      ],
      "name": "getInvestment",
      "outputs": [
        {
          "internalType": "address",
          "name": "investor",
          "type": "address"
        },
        {
          "internalType": "uint256",
          "name": "amount",
          "type": "uint256"
        },
        {
          "internalType": "uint256",
          "name": "expectation",
          "type": "uint256"
        }
      ],
      "payable": false,
      "stateMutability": "view",
      "type": "function"
    },
    {
      "constant": true,
      "inputs": [],
      "name": "contractBalance",
      "outputs": [
        {
          "internalType": "uint256",
          "name": "",
          "type": "uint256"
        }
      ],
      "payable": false,
      "stateMutability": "view",
      "type": "function"
    },
    {
      "constant": false,
      "inputs": [
        {
          "internalType": "string",
          "name": "_name",
          "type": "string"
        },
        {
          "internalType": "string",
          "name": "_location",
          "type": "string"
        }
      ],
      "name": "addFarmer",
      "outputs": [],
      "payable": false,
      "stateMutability": "nonpayable",
      "type": "function"
    },
    {
      "constant": true,
      "inputs": [],
      "name": "getFarmerCount",
      "outputs": [
        {
          "internalType": "uint256",
          "name": "",
          "type": "uint256"
        }
      ],
      "payable": false,
      "stateMutability": "view",
      "type": "function"
    },
    {
      "constant": false,
      "inputs": [
        {
          "internalType": "uint256",
          "name": "_farmerID",
          "type": "uint256"
        }
      ],
      "name": "addMilkingActivity",
      "outputs": [],
      "payable": false,
      "stateMutability": "nonpayable",
      "type": "function"
    },
    {
      "constant": true,
      "inputs": [],
      "name": "getMilkingCount",
      "outputs": [
        {
          "internalType": "uint256",
          "name": "",
          "type": "uint256"
        }
      ],
      "payable": false,
      "stateMutability": "view",
      "type": "function"
    },
    {
      "constant": false,
      "inputs": [
        {
          "internalType": "uint256",
          "name": "_milkingID",
          "type": "uint256"
        },
        {
          "internalType": "uint256",
          "name": "_farmerID",
          "type": "uint256"
        },
        {
          "internalType": "uint256",
          "name": "_quantity",
          "type": "uint256"
        }
      ],
      "name": "updateMilkingByID",
      "outputs": [],
      "payable": false,
      "stateMutability": "nonpayable",
      "type": "function"
    },
    {
      "constant": true,
      "inputs": [],
      "name": "getTotalMilk",
      "outputs": [
        {
          "internalType": "uint256",
          "name": "",
          "type": "uint256"
        }
      ],
      "payable": false,
      "stateMutability": "view",
      "type": "function"
    },
    {
      "constant": true,
      "inputs": [
        {
          "internalType": "uint256",
          "name": "_milkingID",
          "type": "uint256"
        }
      ],
      "name": "viewPayment",
      "outputs": [
        {
          "internalType": "uint256",
          "name": "",
          "type": "uint256"
        },
        {
          "internalType": "uint256",
          "name": "",
          "type": "uint256"
        },
        {
          "internalType": "uint256",
          "name": "",
          "type": "uint256"
        }
      ],
      "payable": false,
      "stateMutability": "view",
      "type": "function"
    },
    {
      "constant": true,
      "inputs": [
        {
          "internalType": "uint256",
          "name": "_farmerID",
          "type": "uint256"
        }
      ],
      "name": "getFarmerBalance",
      "outputs": [
        {
          "internalType": "uint256",
          "name": "",
          "type": "uint256"
        }
      ],
      "payable": false,
      "stateMutability": "view",
      "type": "function"
    },
    {
      "constant": false,
      "inputs": [],
      "name": "distributeMilk",
      "outputs": [],
      "payable": false,
      "stateMutability": "nonpayable",
      "type": "function"
    }
  ],
  "bytecode": "0x6080604052600160045534801561001557600080fd5b50604051611e0e380380611e0e8339818101604052602081101561003857600080fd5b8101908080519060200190929190505050336000806101000a81548173ffffffffffffffffffffffffffffffffffffffff021916908373ffffffffffffffffffffffffffffffffffffffff16021790555080600160006101000a81548173ffffffffffffffffffffffffffffffffffffffff021916908373ffffffffffffffffffffffffffffffffffffffff16021790555050611d34806100da6000396000f3fe60806040526004361061013f5760003560e01c80639361c434116100b6578063bd45b3971161006f578063bd45b397146107dc578063c4a8b5d514610807578063da73b85614610832578063f7373b6414610849578063f851a440146108bb578063fd345c8a146109125761013f565b80639361c43414610550578063991cd78b1461057b5780639925df97146106da578063a5b91d1414610729578063b8726d0f14610786578063b8d84697146107b15761013f565b80633610724e116101085780633610724e1461028c57806355a373d6146102ba57806387d81789146103115780638afdd669146103755780638b3e4334146104d65780638b7afe2e146105255761013f565b80621fdabf1461014457806322ae634f1461017f578063246b0e5c146102085780632a439eed146102335780632afcf4801461025e575b600080fd5b34801561015057600080fd5b5061017d6004803603602081101561016757600080fd5b81019080803590602001909291905050506109a2565b005b34801561018b57600080fd5b506101b8600480360360208110156101a257600080fd5b8101908080359060200190929190505050610aa6565b604051808473ffffffffffffffffffffffffffffffffffffffff1673ffffffffffffffffffffffffffffffffffffffff168152602001838152602001828152602001935050505060405180910390f35b34801561021457600080fd5b5061021d610b1d565b6040518082815260200191505060405180910390f35b34801561023f57600080fd5b50610248610b23565b6040518082815260200191505060405180910390f35b61028a6004803603602081101561027457600080fd5b8101908080359060200190929190505050610b2d565b005b6102b8600480360360208110156102a257600080fd5b8101908080359060200190929190505050610c20565b005b3480156102c657600080fd5b506102cf610e27565b604051808273ffffffffffffffffffffffffffffffffffffffff1673ffffffffffffffffffffffffffffffffffffffff16815260200191505060405180910390f35b34801561031d57600080fd5b5061034a6004803603602081101561033457600080fd5b8101908080359060200190929190505050610e4d565b6040518085815260200184815260200183815260200182815260200194505050505060405180910390f35b34801561038157600080fd5b506103ae6004803603602081101561039857600080fd5b8101908080359060200190929190505050610e7d565b60405180868152602001806020018573ffffffffffffffffffffffffffffffffffffffff1673ffffffffffffffffffffffffffffffffffffffff16815260200180602001848152602001838103835287818151815260200191508051906020019080838360005b83811015610430578082015181840152602081019050610415565b50505050905090810190601f16801561045d5780820380516001836020036101000a031916815260200191505b50838103825285818151815260200191508051906020019080838360005b8381101561049657808201518184015260208101905061047b565b50505050905090810190601f1680156104c35780820380516001836020036101000a031916815260200191505b5097505050505050505060405180910390f35b3480156104e257600080fd5b50610523600480360360608110156104f957600080fd5b81019080803590602001909291908035906020019092919080359060200190929190505050611003565b005b34801561053157600080fd5b5061053a6111d0565b6040518082815260200191505060405180910390f35b34801561055c57600080fd5b506105656111d8565b6040518082815260200191505060405180910390f35b34801561058757600080fd5b506106d86004803603604081101561059e57600080fd5b81019080803590602001906401000000008111156105bb57600080fd5b8201836020820111156105cd57600080fd5b803590602001918460018302840111640100000000831117156105ef57600080fd5b91908080601f016020809104026020016040519081016040528093929190818152602001838380828437600081840152601f19601f8201169050808301925050505050505091929192908035906020019064010000000081111561065257600080fd5b82018360208201111561066457600080fd5b8035906020019184600183028401116401000000008311171561068657600080fd5b91908080601f016020809104026020016040519081016040528093929190818152602001838380828437600081840152601f19601f8201169050808301925050505050505091929192905050506111de565b005b3480156106e657600080fd5b50610713600480360360208110156106fd57600080fd5b8101908080359060200190929190505050611428565b6040518082815260200191505060405180910390f35b34801561073557600080fd5b506107626004803603602081101561074c57600080fd5b81019080803590602001909291905050506114ed565b60405180848152602001838152602001828152602001935050505060405180910390f35b34801561079257600080fd5b5061079b6115e9565b6040518082815260200191505060405180910390f35b3480156107bd57600080fd5b506107c66115f3565b6040518082815260200191505060405180910390f35b3480156107e857600080fd5b506107f16115fd565b6040518082815260200191505060405180910390f35b34801561081357600080fd5b5061081c611603565b6040518082815260200191505060405180910390f35b34801561083e57600080fd5b5061084761160d565b005b34801561085557600080fd5b506108826004803603602081101561086c57600080fd5b8101908080359060200190929190505050611861565b604051808581526020018481526020018381526020018260028111156108a457fe5b60ff16815260200194505050505060405180910390f35b3480156108c757600080fd5b506108d061189e565b604051808273ffffffffffffffffffffffffffffffffffffffff1673ffffffffffffffffffffffffffffffffffffffff16815260200191505060405180910390f35b34801561091e57600080fd5b5061094b6004803603602081101561093557600080fd5b81019080803590602001909291905050506118c3565b604051808581526020018473ffffffffffffffffffffffffffffffffffffffff1673ffffffffffffffffffffffffffffffffffffffff16815260200183815260200182815260200194505050505060405180910390f35b600a600081548092919060010191905055506040518060800160405280600a54815260200182815260200160008152602001600060028111156109e157fe5b81525060096000600a54815260200190815260200160002060008201518160000155602082015181600101556040820151816002015560608201518160030160006101000a81548160ff02191690836002811115610a3b57fe5b02179055509050507f8181afd8e5a058b4804a6614cd923fa69835423d05fe1f5fbd30febd4e13561d600a548260008060405180858152602001848152602001838152602001826002811115610a8d57fe5b60ff16815260200194505050505060405180910390a150565b60008060006005600085815260200190815260200160002060010160009054906101000a900473ffffffffffffffffffffffffffffffffffffffff16600560008681526020019081526020016000206002015460056000878152602001908152602001600020600301549250925092509193909250565b60065481565b6000600254905090565b803414610b3957600080fd5b6006600081548092919060010191905055503360056000600654815260200190815260200160002060010160006101000a81548173ffffffffffffffffffffffffffffffffffffffff021916908373ffffffffffffffffffffffffffffffffffffffff160217905550806005600060065481526020019081526020016000206002018190555060648181610bc957fe5b04600560006006548152602001908152602001600020600301819055507f387c02e3acf09de4e6ae95a66560ef4ddd5d6753d186b6019b4e59dbf5821ead816040518082815260200191505060405180910390a150565b80600160009054906101000a900473ffffffffffffffffffffffffffffffffffffffff1673ffffffffffffffffffffffffffffffffffffffff1663f8b2cb4f6000809054906101000a900473ffffffffffffffffffffffffffffffffffffffff166040518263ffffffff1660e01b8152600401808273ffffffffffffffffffffffffffffffffffffffff1673ffffffffffffffffffffffffffffffffffffffff16815260200191505060206040518083038186803b158015610ce157600080fd5b505afa158015610cf5573d6000803e3d6000fd5b505050506040513d6020811015610d0b57600080fd5b81019080805190602001909291905050501015610d2757600080fd5b600160009054906101000a900473ffffffffffffffffffffffffffffffffffffffff1673ffffffffffffffffffffffffffffffffffffffff1663a9059cbb33836040518363ffffffff1660e01b8152600401808373ffffffffffffffffffffffffffffffffffffffff1673ffffffffffffffffffffffffffffffffffffffff16815260200182815260200192505050602060405180830381600087803b158015610dd057600080fd5b505af1158015610de4573d6000803e3d6000fd5b505050506040513d6020811015610dfa57600080fd5b8101908080519060200190929190505050610e1457600080fd5b8060036000828254019250508190555050565b600160009054906101000a900473ffffffffffffffffffffffffffffffffffffffff1681565b600b6020528060005260406000206000915090508060000154908060010154908060020154908060030154905084565b6007602052806000526040600020600091509050806000015490806001018054600181600116156101000203166002900480601f016020809104026020016040519081016040528092919081815260200182805460018160011615610100020316600290048015610f2f5780601f10610f0457610100808354040283529160200191610f2f565b820191906000526020600020905b815481529060010190602001808311610f1257829003601f168201915b5050505050908060020160009054906101000a900473ffffffffffffffffffffffffffffffffffffffff1690806003018054600181600116156101000203166002900480601f016020809104026020016040519081016040528092919081815260200182805460018160011615610100020316600290048015610ff35780601f10610fc857610100808354040283529160200191610ff3565b820191906000526020600020905b815481529060010190602001808311610fd657829003601f168201915b5050505050908060040154905085565b81600960008581526020019081526020016000206001015414611071576040517f08c379a0000000000000000000000000000000000000000000000000000000008152600401808060200182810382526036815260200180611c1b6036913960400191505060405180910390fd5b6000600281111561107e57fe5b6009600085815260200190815260200160002060030160009054906101000a900460ff1660028111156110ad57fe5b14611103576040517f08c379a000000000000000000000000000000000000000000000000000000000815260040180806020018281038252603e815260200180611bdd603e913960400191505060405180910390fd5b80600960008581526020019081526020016000206002018190555060016009600085815260200190815260200160002060030160006101000a81548160ff0219169083600281111561115157fe5b0217905550806002540160028190555061116b8284611913565b7f08153fa6bf2aa0b5120880e44639943e66f59045ab39e106f57f16c691391cf2600a5483836000604051808581526020018481526020018381526020018260028111156111b557fe5b60ff16815260200194505050505060405180910390a1505050565b600047905090565b600a5481565b6008600081548092919060010191905055506040518060a0016040528060085481526020018381526020013373ffffffffffffffffffffffffffffffffffffffff168152602001828152602001600081525060076000600854815260200190815260200160002060008201518160000155602082015181600101908051906020019061126b929190611b37565b5060408201518160020160006101000a81548173ffffffffffffffffffffffffffffffffffffffff021916908373ffffffffffffffffffffffffffffffffffffffff16021790555060608201518160030190805190602001906112cf929190611b37565b50608082015181600401559050507f2c23a012bba1b1f6dc5942fedb63052bc131011a95a281a82aad3bba175083c760085483338460405180858152602001806020018473ffffffffffffffffffffffffffffffffffffffff1673ffffffffffffffffffffffffffffffffffffffff16815260200180602001838103835286818151815260200191508051906020019080838360005b83811015611380578082015181840152602081019050611365565b50505050905090810190601f1680156113ad5780820380516001836020036101000a031916815260200191505b50838103825284818151815260200191508051906020019080838360005b838110156113e65780820151818401526020810190506113cb565b50505050905090810190601f1680156114135780820380516001836020036101000a031916815260200191505b50965050505050505060405180910390a15050565b60006007600083815260200190815260200160002060020160009054906101000a900473ffffffffffffffffffffffffffffffffffffffff1673ffffffffffffffffffffffffffffffffffffffff163373ffffffffffffffffffffffffffffffffffffffff161461149857600080fd5b6007600083815260200190815260200160002060020160009054906101000a900473ffffffffffffffffffffffffffffffffffffffff1673ffffffffffffffffffffffffffffffffffffffff16319050919050565b60008060008060009054906101000a900473ffffffffffffffffffffffffffffffffffffffff1673ffffffffffffffffffffffffffffffffffffffff163373ffffffffffffffffffffffffffffffffffffffff1614611597576040517f08c379a0000000000000000000000000000000000000000000000000000000008152600401808060200182810382526032815260200180611c516032913960400191505060405180910390fd5b600b600085815260200190815260200160002060010154600b600086815260200190815260200160002060020154600b6000878152602001908152602001600020600301549250925092509193909250565b6000600a54905090565b6000600654905090565b60085481565b6000600854905090565b6000809054906101000a900473ffffffffffffffffffffffffffffffffffffffff1673ffffffffffffffffffffffffffffffffffffffff163373ffffffffffffffffffffffffffffffffffffffff161461166657600080fd5b60065460045411156116c3576040517f08c379a000000000000000000000000000000000000000000000000000000000815260040180806020018281038252603d815260200180611cc3603d913960400191505060405180910390fd5b60006002541161173b576040517f08c379a000000000000000000000000000000000000000000000000000000000815260040180806020018281038252601f8152602001807f5468657265206973206e6f206d696c6b20617661696c61626c65206e6f772e0081525060200191505060405180910390fd5b6005600060045481526020019081526020016000206003015460025411156117bd5760056000600454815260200190815260200160002060030154600254036002819055506000600560006004548152602001908152602001600020600301819055506004600081548092919060010191905055506117b861160d565b61185f565b60056000600454815260200190815260200160002060030154600254141561181c57600060028190555060006005600060045481526020019081526020016000206003018190555060046000815480929190600101919050555061185e565b60025460056000600454815260200190815260200160002060030154036005600060045481526020019081526020016000206003018190555060006002819055505b5b565b60096020528060005260406000206000915090508060000154908060010154908060020154908060030160009054906101000a900460ff16905084565b6000809054906101000a900473ffffffffffffffffffffffffffffffffffffffff1681565b60056020528060005260406000206000915090508060000154908060010160009054906101000a900473ffffffffffffffffffffffffffffffffffffffff16908060020154908060030154905084565b600a54811115801561195e57506001600281111561192d57fe5b6009600083815260200190815260200160002060030160009054906101000a900460ff16600281111561195c57fe5b145b6119b3576040517f08c379a0000000000000000000000000000000000000000000000000000000008152600401808060200182810382526040815260200180611c836040913960400191505060405180910390fd5b60006007600084815260200190815260200160002060020160009054906101000a900473ffffffffffffffffffffffffffffffffffffffff1690506000606460096000858152602001908152602001600020600201540290508173ffffffffffffffffffffffffffffffffffffffff166108fc829081150290604051600060405180830381858888f19350505050158015611a52573d6000803e3d6000fd5b5060026009600085815260200190815260200160002060030160006101000a81548160ff02191690836002811115611a8657fe5b021790555082600b6000868152602001908152602001600020600001819055506009600084815260200190815260200160002060020154600b60008681526020019081526020016000206002018190555080600b6000868152602001908152602001600020600301819055507fa8e6f9f627e4d2eb0f2887148343c7db7d11e76bdf6b93363126267954a42a518484604051808381526020018281526020019250505060405180910390a150505050565b828054600181600116156101000203166002900490600052602060002090601f016020900481019282601f10611b7857805160ff1916838001178555611ba6565b82800160010185558215611ba6579182015b82811115611ba5578251825591602001919060010190611b8a565b5b509050611bb39190611bb7565b5090565b611bd991905b80821115611bd5576000816000905550600101611bbd565b5090565b9056fe506c6561736520656e74657220612076616c6964206d696c6b696e672061637469766974792077686f73652073746174757320697320535441525445442e506c6561736520656e74657220612076616c6964206d696c6b696e6720616374697669747920756e64657220796f7572206e616d652e4f6e6c792074686520636f6e7472616374206f776e65722063616e20636865636b207061796d656e742064657461696c732e506c6561736520656e74657220612076616c6964206d696c6b696e672061637469766974792077686f73652073746174757320697320434f4d504c455445442e54686520696e7665746d656e7420494420656e74657272656420657863656564732074686520746f74616c20696e766573746d656e7420636f756e742ea265627a7a72315820262a4d7c61fc91c849554326e615cca6d7d70f80a93bd09477db0fe29a99075a64736f6c63430005100032",
  "source": "// SPDX-License-Identifier: <SPDX-License>\n/**\n * Functionalities:\n * 1. Register a list of farmers, their names,Ethereum addresses (for payment), locations, number of milking activities.\n * 2. Each milking activity is a struct containing: id, farmer id, milking status.\n * 3. Milking status has 3 possible values: STARTED, COMPLETED, PAID; only COMPLETED milking activities can be paid and changed to PAID. Payment amount for milking activities is calculated by quantity * pricePerKilo.\n * 3. Multiple investors can deposit money to the smart contract. The totalMilk is distributed to investors based on amount of their investments. The investments are satisfied on a first-come, first-serve basis. Satisfied investments are removed from the storage.\n * 4. Corresponding events are emitted.\n**/\n\npragma solidity >=0.4.22;\n\nimport \"./FarmToken.sol\";\n\ncontract AutomaticPayment {\n    address public admin;\n    FarmToken public tokenContract;\n    uint constant pricePerKilo = 100;\n    uint totalMilk;\n    uint tokenSold;\n    uint investmentToSatisfy = 1; // default value; automatically updated after milk is distributed by calling the distributeMilk function\n    \n    enum MilkingStatus {\n        STARTED,\n        COMPLETED,\n        PAID\n    }\n    \n    struct Investment {\n        uint id;\n        address investorAddr;\n        uint amount; // amount of Wei invested\n        uint expectation; // how much milk is expected (in kilo)\n    }\n\n    struct Farmer {\n        uint id;\n        string name;\n        address addr;\n        string location;\n        uint milking_count;\n    }\n\n    struct MilkingActivity {\n        uint id;\n        uint farmerID;\n        uint quantity;\n        MilkingStatus status;\n    }\n    \n    struct Payment {\n        uint milkingID;\n        uint farmerID;\n        uint quantity;\n        uint payAmount;\n    }\n    \n    mapping (uint => Investment) public investments;\n    uint public investmentCount;\n    \n    mapping (uint => Farmer) public farmers; // store Farmers\n    uint public farmerCount;\n\n    mapping (uint => MilkingActivity) public milking;\n    uint public milkingCount;\n    \n    mapping (uint => Payment) public payments;\n    \n    event NewInvestment (\n        uint amount\n    );\n    \n    event FarmerAdded (\n        uint id,\n        string name,\n        address addr,\n        string location\n    );\n    \n    event MilkingAdded (\n        uint id,\n        uint farmerID,\n        uint quantity,\n        MilkingStatus status\n    );\n    \n    event MilkingUpdated (\n        uint id,\n        uint farmerID,\n        uint quantity,\n        MilkingStatus status\n    );\n    \n    event NewPayment (\n        uint farmerID,\n        uint milkingID\n    );\n\n    constructor(FarmToken _tokenContract) public {\n        admin = msg.sender;\n        tokenContract = _tokenContract;\n    }\n\n    function buyTokens(uint _numOfTokens) public payable {\n        require(\n            tokenContract.getBalance(admin) >= _numOfTokens\n            // require(tokenContract.balanceOf(this) >= _numberOfTokens);\n        );\n\n        require(\n            tokenContract.transfer(msg.sender, _numOfTokens)\n        );\n\n        tokenSold += _numOfTokens;\n    }\n    \n    // can be called by multiple investors\n    function invest(uint _amount) external payable {\n        require(\n            msg.value == _amount\n        );\n        \n        investmentCount++;\n        investments[investmentCount].investorAddr = msg.sender;\n        investments[investmentCount].amount = _amount;\n        investments[investmentCount].expectation = _amount/pricePerKilo; // assuming all integer values\n        \n        emit NewInvestment(_amount);\n    }\n\n    function getInvestmentCount() external view returns (uint) {\n        return investmentCount;\n    }\n\n    function getInvestment(uint _investmentID) external view \n        returns (\n            address investor,\n            uint amount,\n            uint expectation\n        ) {\n            return (investments[_investmentID].investorAddr, investments[_investmentID].amount, investments[_investmentID].expectation);\n    }\n\n    function contractBalance() external view returns (uint){\n        return address(this).balance;\n    }\n\n    function addFarmer (string memory _name, string memory _location) public {\n        farmerCount++;\n        farmers[farmerCount] = Farmer(farmerCount, _name, msg.sender, _location, 0);\n        \n        emit FarmerAdded(farmerCount, _name, msg.sender, _location);\n    }\n\n    function getFarmerCount() external view returns (uint) {\n        return farmerCount;\n    }\n\n    function addMilkingActivity (uint _farmerID) public {\n        milkingCount++;\n        milking[milkingCount] = MilkingActivity(milkingCount, _farmerID, 0, MilkingStatus.STARTED); // update milking\n        \n        emit MilkingAdded(milkingCount, _farmerID, 0, MilkingStatus.STARTED);\n    }\n\n    function getMilkingCount() external view returns (uint) {\n        return milkingCount;\n    }\n    \n    // only farmer of a particular milking activity can update its status\n    // only milking activities that are STARTED can be updated to COMPLETED\n    function updateMilkingByID (uint _milkingID, uint _farmerID, uint _quantity) public {\n        require(\n            milking[_milkingID].farmerID == _farmerID,\n            \"Please enter a valid milking activity under your name.\"\n        );\n        \n        require(\n            milking[_milkingID].status == MilkingStatus.STARTED,\n            \"Please enter a valid milking activity whose status is STARTED.\"\n        );\n        \n        milking[_milkingID].quantity = _quantity;\n        milking[_milkingID].status = MilkingStatus.COMPLETED;\n        totalMilk = totalMilk + _quantity; // update totalMilk for distribution\n        \n        payFarmer(_farmerID, _milkingID);\n        \n        emit MilkingUpdated(milkingCount, _farmerID, _quantity, MilkingStatus.STARTED);\n    }\n\n    function getTotalMilk() external view returns (uint) {\n        return totalMilk;\n    }\n\n    // called automatically when the status of a milking activity becomes COMPLETED\n    function payFarmer(uint _farmerID, uint _milkingID) private {\n        require(\n            _milkingID <= milkingCount &&\n            milking[_milkingID].status == MilkingStatus.COMPLETED,\n            \"Please enter a valid milking activity whose status is COMPLETED.\"\n        );\n        \n        address payable recipient = address(uint160(farmers[_farmerID].addr));\n        uint amount = milking[_milkingID].quantity * pricePerKilo;\n        \n        recipient.transfer(amount);\n        milking[_milkingID].status = MilkingStatus.PAID;\n        \n        payments[_farmerID].milkingID = _milkingID;\n        payments[_farmerID].quantity = milking[_milkingID].quantity;\n        payments[_farmerID].payAmount = amount;\n        \n        emit NewPayment(_farmerID, _milkingID);\n    }\n    \n    function viewPayment(uint _milkingID) external view \n        returns (\n            uint,\n            uint,\n            uint\n        ) \n    {\n        require(\n            msg.sender == admin,\n            \"Only the contract owner can check payment details.\"\n        );\n        \n        return (payments[_milkingID].farmerID, payments[_milkingID].quantity, payments[_milkingID].payAmount);\n    }\n\n    function getFarmerBalance(uint _farmerID) external view returns (uint) {\n        require(\n            msg.sender == farmers[_farmerID].addr\n        );\n\n        return farmers[_farmerID].addr.balance;\n    }\n    \n    // called by the contract owner after collecting a number of investments and some quantity of milk\n    // returns the next investmentToSatisfy and totalMilk remaining \n    // always distribute from the first investment\n    function distributeMilk () public {\n        require(\n            msg.sender == admin\n        );\n        \n        require(\n            investmentToSatisfy <= investmentCount,\n            \"The invetment ID enterred exceeds the total investment count.\"\n        );\n        \n        require(\n            totalMilk > 0,\n            \"There is no milk available now.\"\n        );\n        \n        if (totalMilk > investments[investmentToSatisfy].expectation) {\n            totalMilk = totalMilk - investments[investmentToSatisfy].expectation;\n            investments[investmentToSatisfy].expectation = 0; // set to 0 as expectation is satisfied\n            investmentToSatisfy++;\n            \n            distributeMilk(); // if there is remaning milk, process the next investment \n            \n        } else if (totalMilk == investments[investmentToSatisfy].expectation) {\n            totalMilk = 0;\n            investments[investmentToSatisfy].expectation = 0;\n            investmentToSatisfy++;\n        } else {\n            investments[investmentToSatisfy].expectation = investments[investmentToSatisfy].expectation - totalMilk;\n            totalMilk = 0;\n        }\n        \n        // return investmentToSatisfy; //return the id of the next investmentToSatisfy\n    }\n\n}\n",
  "sourcePath": "/Users/yininghu/Documents/work/dairy-provenance/contracts/AutomaticPayment.sol",
  "compiler": {
    "name": "solc",
    "version": "0.5.16+commit.9c3226ce.Emscripten.clang"
  },
  "schemaVersion": "3.4.1",
  "updatedAt": "2021-06-15T02:23:59.492Z",
  "devdoc": {
    "methods": {}
  },
  "userdoc": {
    "methods": {}
  }
}