{
  "contractName": "AutomaticPayment",
  "abi": [
    {
      "inputs": [
        {
          "internalType": "contract FarmToken",
          "name": "_tokenContract",
          "type": "address"
        },
        {
          "internalType": "uint256",
          "name": "_tokenPrice",
          "type": "uint256"
        }
      ],
      "payable": false,
      "stateMutability": "nonpayable",
      "type": "constructor"
    },
    {
      "anonymous": false,
      "inputs": [
        {
          "indexed": false,
          "internalType": "uint256",
          "name": "id",
          "type": "uint256"
        },
        {
          "indexed": false,
          "internalType": "string",
          "name": "name",
          "type": "string"
        },
        {
          "indexed": false,
          "internalType": "address",
          "name": "addr",
          "type": "address"
        },
        {
          "indexed": false,
          "internalType": "string",
          "name": "location",
          "type": "string"
        }
      ],
      "name": "FarmerAdded",
      "type": "event"
    },
    {
      "anonymous": false,
      "inputs": [
        {
          "indexed": false,
          "internalType": "uint256",
          "name": "id",
          "type": "uint256"
        },
        {
          "indexed": false,
          "internalType": "uint256",
          "name": "farmerID",
          "type": "uint256"
        },
        {
          "indexed": false,
          "internalType": "uint256",
          "name": "quantity",
          "type": "uint256"
        },
        {
          "indexed": false,
          "internalType": "enum AutomaticPayment.MilkingStatus",
          "name": "status",
          "type": "uint8"
        }
      ],
      "name": "MilkingAdded",
      "type": "event"
    },
    {
      "anonymous": false,
      "inputs": [
        {
          "indexed": false,
          "internalType": "uint256",
          "name": "id",
          "type": "uint256"
        },
        {
          "indexed": false,
          "internalType": "uint256",
          "name": "farmerID",
          "type": "uint256"
        },
        {
          "indexed": false,
          "internalType": "uint256",
          "name": "quantity",
          "type": "uint256"
        },
        {
          "indexed": false,
          "internalType": "enum AutomaticPayment.MilkingStatus",
          "name": "status",
          "type": "uint8"
        }
      ],
      "name": "MilkingUpdated",
      "type": "event"
    },
    {
      "anonymous": false,
      "inputs": [
        {
          "indexed": false,
          "internalType": "uint256",
          "name": "amount",
          "type": "uint256"
        }
      ],
      "name": "NewInvestment",
      "type": "event"
    },
    {
      "anonymous": false,
      "inputs": [
        {
          "indexed": false,
          "internalType": "uint256",
          "name": "farmerID",
          "type": "uint256"
        },
        {
          "indexed": false,
          "internalType": "uint256",
          "name": "milkingID",
          "type": "uint256"
        }
      ],
      "name": "NewPayment",
      "type": "event"
    },
    {
      "constant": true,
      "inputs": [],
      "name": "admin",
      "outputs": [
        {
          "internalType": "address",
          "name": "",
          "type": "address"
        }
      ],
      "payable": false,
      "stateMutability": "view",
      "type": "function"
    },
    {
      "constant": true,
      "inputs": [],
      "name": "farmerCount",
      "outputs": [
        {
          "internalType": "uint256",
          "name": "",
          "type": "uint256"
        }
      ],
      "payable": false,
      "stateMutability": "view",
      "type": "function"
    },
    {
      "constant": true,
      "inputs": [
        {
          "internalType": "uint256",
          "name": "",
          "type": "uint256"
        }
      ],
      "name": "farmers",
      "outputs": [
        {
          "internalType": "uint256",
          "name": "id",
          "type": "uint256"
        },
        {
          "internalType": "string",
          "name": "name",
          "type": "string"
        },
        {
          "internalType": "address",
          "name": "addr",
          "type": "address"
        },
        {
          "internalType": "string",
          "name": "location",
          "type": "string"
        },
        {
          "internalType": "uint256",
          "name": "milking_count",
          "type": "uint256"
        }
      ],
      "payable": false,
      "stateMutability": "view",
      "type": "function"
    },
    {
      "constant": true,
      "inputs": [],
      "name": "investmentCount",
      "outputs": [
        {
          "internalType": "uint256",
          "name": "",
          "type": "uint256"
        }
      ],
      "payable": false,
      "stateMutability": "view",
      "type": "function"
    },
    {
      "constant": true,
      "inputs": [
        {
          "internalType": "uint256",
          "name": "",
          "type": "uint256"
        }
      ],
      "name": "investments",
      "outputs": [
        {
          "internalType": "uint256",
          "name": "id",
          "type": "uint256"
        },
        {
          "internalType": "address",
          "name": "investorAddr",
          "type": "address"
        },
        {
          "internalType": "uint256",
          "name": "amount",
          "type": "uint256"
        },
        {
          "internalType": "uint256",
          "name": "expectation",
          "type": "uint256"
        }
      ],
      "payable": false,
      "stateMutability": "view",
      "type": "function"
    },
    {
      "constant": true,
      "inputs": [
        {
          "internalType": "uint256",
          "name": "",
          "type": "uint256"
        }
      ],
      "name": "milking",
      "outputs": [
        {
          "internalType": "uint256",
          "name": "id",
          "type": "uint256"
        },
        {
          "internalType": "uint256",
          "name": "farmerID",
          "type": "uint256"
        },
        {
          "internalType": "uint256",
          "name": "quantity",
          "type": "uint256"
        },
        {
          "internalType": "enum AutomaticPayment.MilkingStatus",
          "name": "status",
          "type": "uint8"
        }
      ],
      "payable": false,
      "stateMutability": "view",
      "type": "function"
    },
    {
      "constant": true,
      "inputs": [],
      "name": "milkingCount",
      "outputs": [
        {
          "internalType": "uint256",
          "name": "",
          "type": "uint256"
        }
      ],
      "payable": false,
      "stateMutability": "view",
      "type": "function"
    },
    {
      "constant": true,
      "inputs": [
        {
          "internalType": "uint256",
          "name": "",
          "type": "uint256"
        }
      ],
      "name": "payments",
      "outputs": [
        {
          "internalType": "uint256",
          "name": "milkingID",
          "type": "uint256"
        },
        {
          "internalType": "uint256",
          "name": "farmerID",
          "type": "uint256"
        },
        {
          "internalType": "uint256",
          "name": "quantity",
          "type": "uint256"
        },
        {
          "internalType": "uint256",
          "name": "payAmount",
          "type": "uint256"
        }
      ],
      "payable": false,
      "stateMutability": "view",
      "type": "function"
    },
    {
      "constant": true,
      "inputs": [],
      "name": "tokenContract",
      "outputs": [
        {
          "internalType": "contract FarmToken",
          "name": "",
          "type": "address"
        }
      ],
      "payable": false,
      "stateMutability": "view",
      "type": "function"
    },
    {
      "constant": true,
      "inputs": [],
      "name": "tokenPrice",
      "outputs": [
        {
          "internalType": "uint256",
          "name": "",
          "type": "uint256"
        }
      ],
      "payable": false,
      "stateMutability": "view",
      "type": "function"
    },
    {
      "constant": true,
      "inputs": [],
      "name": "tokenSold",
      "outputs": [
        {
          "internalType": "uint256",
          "name": "",
          "type": "uint256"
        }
      ],
      "payable": false,
      "stateMutability": "view",
      "type": "function"
    },
    {
      "constant": false,
      "inputs": [
        {
          "internalType": "uint256",
          "name": "_numOfTokens",
          "type": "uint256"
        }
      ],
      "name": "buyTokens",
      "outputs": [],
      "payable": true,
      "stateMutability": "payable",
      "type": "function"
    },
    {
      "constant": false,
      "inputs": [
        {
          "internalType": "uint256",
          "name": "_amount",
          "type": "uint256"
        }
      ],
      "name": "invest",
      "outputs": [],
      "payable": true,
      "stateMutability": "payable",
      "type": "function"
    },
    {
      "constant": true,
      "inputs": [],
      "name": "getInvestmentCount",
      "outputs": [
        {
          "internalType": "uint256",
          "name": "",
          "type": "uint256"
        }
      ],
      "payable": false,
      "stateMutability": "view",
      "type": "function"
    },
    {
      "constant": true,
      "inputs": [
        {
          "internalType": "uint256",
          "name": "_investmentID",
          "type": "uint256"
        }
      ],
      "name": "getInvestment",
      "outputs": [
        {
          "internalType": "address",
          "name": "investor",
          "type": "address"
        },
        {
          "internalType": "uint256",
          "name": "amount",
          "type": "uint256"
        },
        {
          "internalType": "uint256",
          "name": "expectation",
          "type": "uint256"
        }
      ],
      "payable": false,
      "stateMutability": "view",
      "type": "function"
    },
    {
      "constant": true,
      "inputs": [],
      "name": "contractBalance",
      "outputs": [
        {
          "internalType": "uint256",
          "name": "",
          "type": "uint256"
        }
      ],
      "payable": false,
      "stateMutability": "view",
      "type": "function"
    },
    {
      "constant": false,
      "inputs": [
        {
          "internalType": "string",
          "name": "_name",
          "type": "string"
        },
        {
          "internalType": "string",
          "name": "_location",
          "type": "string"
        }
      ],
      "name": "addFarmer",
      "outputs": [],
      "payable": false,
      "stateMutability": "nonpayable",
      "type": "function"
    },
    {
      "constant": true,
      "inputs": [],
      "name": "getFarmerCount",
      "outputs": [
        {
          "internalType": "uint256",
          "name": "",
          "type": "uint256"
        }
      ],
      "payable": false,
      "stateMutability": "view",
      "type": "function"
    },
    {
      "constant": false,
      "inputs": [
        {
          "internalType": "uint256",
          "name": "_farmerID",
          "type": "uint256"
        }
      ],
      "name": "addMilkingActivity",
      "outputs": [],
      "payable": false,
      "stateMutability": "nonpayable",
      "type": "function"
    },
    {
      "constant": true,
      "inputs": [],
      "name": "getMilkingCount",
      "outputs": [
        {
          "internalType": "uint256",
          "name": "",
          "type": "uint256"
        }
      ],
      "payable": false,
      "stateMutability": "view",
      "type": "function"
    },
    {
      "constant": false,
      "inputs": [
        {
          "internalType": "uint256",
          "name": "_milkingID",
          "type": "uint256"
        },
        {
          "internalType": "uint256",
          "name": "_farmerID",
          "type": "uint256"
        },
        {
          "internalType": "uint256",
          "name": "_quantity",
          "type": "uint256"
        }
      ],
      "name": "updateMilkingByID",
      "outputs": [],
      "payable": false,
      "stateMutability": "nonpayable",
      "type": "function"
    },
    {
      "constant": true,
      "inputs": [],
      "name": "getTotalMilk",
      "outputs": [
        {
          "internalType": "uint256",
          "name": "",
          "type": "uint256"
        }
      ],
      "payable": false,
      "stateMutability": "view",
      "type": "function"
    },
    {
      "constant": true,
      "inputs": [
        {
          "internalType": "uint256",
          "name": "_milkingID",
          "type": "uint256"
        }
      ],
      "name": "viewPayment",
      "outputs": [
        {
          "internalType": "uint256",
          "name": "",
          "type": "uint256"
        },
        {
          "internalType": "uint256",
          "name": "",
          "type": "uint256"
        },
        {
          "internalType": "uint256",
          "name": "",
          "type": "uint256"
        }
      ],
      "payable": false,
      "stateMutability": "view",
      "type": "function"
    },
    {
      "constant": true,
      "inputs": [
        {
          "internalType": "uint256",
          "name": "_farmerID",
          "type": "uint256"
        }
      ],
      "name": "getFarmerBalance",
      "outputs": [
        {
          "internalType": "uint256",
          "name": "",
          "type": "uint256"
        }
      ],
      "payable": false,
      "stateMutability": "view",
      "type": "function"
    },
    {
      "constant": false,
      "inputs": [],
      "name": "distributeMilk",
      "outputs": [
        {
          "internalType": "uint256",
          "name": "",
          "type": "uint256"
        }
      ],
      "payable": false,
      "stateMutability": "nonpayable",
      "type": "function"
    }
  ],
  "bytecode": "0x6080604052600160055534801561001557600080fd5b50604051611ee7380380611ee78339818101604052604081101561003857600080fd5b810190808051906020019092919080519060200190929190505050336000806101000a81548173ffffffffffffffffffffffffffffffffffffffff021916908373ffffffffffffffffffffffffffffffffffffffff16021790555081600160006101000a81548173ffffffffffffffffffffffffffffffffffffffff021916908373ffffffffffffffffffffffffffffffffffffffff160217905550806002819055505050611dfb806100ec6000396000f3fe6080604052600436106101655760003560e01c80638b7afe2e116100d1578063b8d846971161008a578063da73b85611610064578063da73b856146108ae578063f7373b64146108d9578063f851a4401461094b578063fd345c8a146109a257610165565b8063b8d846971461082d578063bd45b39714610858578063c4a8b5d51461088357610165565b80638b7afe2e146105a15780639361c434146105cc578063991cd78b146105f75780639925df9714610756578063a5b91d14146107a5578063b8726d0f1461080257610165565b8063519ee19e11610123578063519ee19e146102e057806355a373d61461030b5780637ff9b5961461036257806387d817891461038d5780638afdd669146103f15780638b3e43341461055257610165565b80621fdabf1461016a57806322ae634f146101a5578063246b0e5c1461022e5780632a439eed146102595780632afcf480146102845780633610724e146102b2575b600080fd5b34801561017657600080fd5b506101a36004803603602081101561018d57600080fd5b8101908080359060200190929190505050610a32565b005b3480156101b157600080fd5b506101de600480360360208110156101c857600080fd5b8101908080359060200190929190505050610b36565b604051808473ffffffffffffffffffffffffffffffffffffffff1673ffffffffffffffffffffffffffffffffffffffff168152602001838152602001828152602001935050505060405180910390f35b34801561023a57600080fd5b50610243610bad565b6040518082815260200191505060405180910390f35b34801561026557600080fd5b5061026e610bb3565b6040518082815260200191505060405180910390f35b6102b06004803603602081101561029a57600080fd5b8101908080359060200190929190505050610bbd565b005b6102de600480360360208110156102c857600080fd5b8101908080359060200190929190505050610cb0565b005b3480156102ec57600080fd5b506102f5610ead565b6040518082815260200191505060405180910390f35b34801561031757600080fd5b50610320610eb3565b604051808273ffffffffffffffffffffffffffffffffffffffff1673ffffffffffffffffffffffffffffffffffffffff16815260200191505060405180910390f35b34801561036e57600080fd5b50610377610ed9565b6040518082815260200191505060405180910390f35b34801561039957600080fd5b506103c6600480360360208110156103b057600080fd5b8101908080359060200190929190505050610edf565b6040518085815260200184815260200183815260200182815260200194505050505060405180910390f35b3480156103fd57600080fd5b5061042a6004803603602081101561041457600080fd5b8101908080359060200190929190505050610f0f565b60405180868152602001806020018573ffffffffffffffffffffffffffffffffffffffff1673ffffffffffffffffffffffffffffffffffffffff16815260200180602001848152602001838103835287818151815260200191508051906020019080838360005b838110156104ac578082015181840152602081019050610491565b50505050905090810190601f1680156104d95780820380516001836020036101000a031916815260200191505b50838103825285818151815260200191508051906020019080838360005b838110156105125780820151818401526020810190506104f7565b50505050905090810190601f16801561053f5780820380516001836020036101000a031916815260200191505b5097505050505050505060405180910390f35b34801561055e57600080fd5b5061059f6004803603606081101561057557600080fd5b81019080803590602001909291908035906020019092919080359060200190929190505050611095565b005b3480156105ad57600080fd5b506105b6611262565b6040518082815260200191505060405180910390f35b3480156105d857600080fd5b506105e161126a565b6040518082815260200191505060405180910390f35b34801561060357600080fd5b506107546004803603604081101561061a57600080fd5b810190808035906020019064010000000081111561063757600080fd5b82018360208201111561064957600080fd5b8035906020019184600183028401116401000000008311171561066b57600080fd5b91908080601f016020809104026020016040519081016040528093929190818152602001838380828437600081840152601f19601f820116905080830192505050505050509192919290803590602001906401000000008111156106ce57600080fd5b8201836020820111156106e057600080fd5b8035906020019184600183028401116401000000008311171561070257600080fd5b91908080601f016020809104026020016040519081016040528093929190818152602001838380828437600081840152601f19601f820116905080830192505050505050509192919290505050611270565b005b34801561076257600080fd5b5061078f6004803603602081101561077957600080fd5b81019080803590602001909291905050506114ba565b6040518082815260200191505060405180910390f35b3480156107b157600080fd5b506107de600480360360208110156107c857600080fd5b810190808035906020019092919050505061157f565b60405180848152602001838152602001828152602001935050505060405180910390f35b34801561080e57600080fd5b5061081761167b565b6040518082815260200191505060405180910390f35b34801561083957600080fd5b50610842611685565b6040518082815260200191505060405180910390f35b34801561086457600080fd5b5061086d61168f565b6040518082815260200191505060405180910390f35b34801561088f57600080fd5b50610898611695565b6040518082815260200191505060405180910390f35b3480156108ba57600080fd5b506108c361169f565b6040518082815260200191505060405180910390f35b3480156108e557600080fd5b50610912600480360360208110156108fc57600080fd5b81019080803590602001909291905050506118fc565b6040518085815260200184815260200183815260200182600281111561093457fe5b60ff16815260200194505050505060405180910390f35b34801561095757600080fd5b50610960611939565b604051808273ffffffffffffffffffffffffffffffffffffffff1673ffffffffffffffffffffffffffffffffffffffff16815260200191505060405180910390f35b3480156109ae57600080fd5b506109db600480360360208110156109c557600080fd5b810190808035906020019092919050505061195e565b604051808581526020018473ffffffffffffffffffffffffffffffffffffffff1673ffffffffffffffffffffffffffffffffffffffff16815260200183815260200182815260200194505050505060405180910390f35b600b600081548092919060010191905055506040518060800160405280600b5481526020018281526020016000815260200160006002811115610a7157fe5b815250600a6000600b54815260200190815260200160002060008201518160000155602082015181600101556040820151816002015560608201518160030160006101000a81548160ff02191690836002811115610acb57fe5b02179055509050507f8181afd8e5a058b4804a6614cd923fa69835423d05fe1f5fbd30febd4e13561d600b548260008060405180858152602001848152602001838152602001826002811115610b1d57fe5b60ff16815260200194505050505060405180910390a150565b60008060006006600085815260200190815260200160002060010160009054906101000a900473ffffffffffffffffffffffffffffffffffffffff16600660008681526020019081526020016000206002015460066000878152602001908152602001600020600301549250925092509193909250565b60075481565b6000600454905090565b803414610bc957600080fd5b6007600081548092919060010191905055503360066000600754815260200190815260200160002060010160006101000a81548173ffffffffffffffffffffffffffffffffffffffff021916908373ffffffffffffffffffffffffffffffffffffffff160217905550806006600060075481526020019081526020016000206002018190555060648181610c5957fe5b04600660006007548152602001908152602001600020600301819055507f387c02e3acf09de4e6ae95a66560ef4ddd5d6753d186b6019b4e59dbf5821ead816040518082815260200191505060405180910390a150565b610cbc816002546119ae565b3414610cc757600080fd5b80600160009054906101000a900473ffffffffffffffffffffffffffffffffffffffff1673ffffffffffffffffffffffffffffffffffffffff166370a08231306040518263ffffffff1660e01b8152600401808273ffffffffffffffffffffffffffffffffffffffff1673ffffffffffffffffffffffffffffffffffffffff16815260200191505060206040518083038186803b158015610d6757600080fd5b505afa158015610d7b573d6000803e3d6000fd5b505050506040513d6020811015610d9157600080fd5b81019080805190602001909291905050501015610dad57600080fd5b600160009054906101000a900473ffffffffffffffffffffffffffffffffffffffff1673ffffffffffffffffffffffffffffffffffffffff1663a9059cbb33836040518363ffffffff1660e01b8152600401808373ffffffffffffffffffffffffffffffffffffffff1673ffffffffffffffffffffffffffffffffffffffff16815260200182815260200192505050602060405180830381600087803b158015610e5657600080fd5b505af1158015610e6a573d6000803e3d6000fd5b505050506040513d6020811015610e8057600080fd5b8101908080519060200190929190505050610e9a57600080fd5b8060036000828254019250508190555050565b60035481565b600160009054906101000a900473ffffffffffffffffffffffffffffffffffffffff1681565b60025481565b600c6020528060005260406000206000915090508060000154908060010154908060020154908060030154905084565b6008602052806000526040600020600091509050806000015490806001018054600181600116156101000203166002900480601f016020809104026020016040519081016040528092919081815260200182805460018160011615610100020316600290048015610fc15780601f10610f9657610100808354040283529160200191610fc1565b820191906000526020600020905b815481529060010190602001808311610fa457829003601f168201915b5050505050908060020160009054906101000a900473ffffffffffffffffffffffffffffffffffffffff1690806003018054600181600116156101000203166002900480601f0160208091040260200160405190810160405280929190818152602001828054600181600116156101000203166002900480156110855780601f1061105a57610100808354040283529160200191611085565b820191906000526020600020905b81548152906001019060200180831161106857829003601f168201915b5050505050908060040154905085565b81600a60008581526020019081526020016000206001015414611103576040517f08c379a0000000000000000000000000000000000000000000000000000000008152600401808060200182810382526036815260200180611ce26036913960400191505060405180910390fd5b6000600281111561111057fe5b600a600085815260200190815260200160002060030160009054906101000a900460ff16600281111561113f57fe5b14611195576040517f08c379a000000000000000000000000000000000000000000000000000000000815260040180806020018281038252603e815260200180611ca4603e913960400191505060405180910390fd5b80600a6000858152602001908152602001600020600201819055506001600a600085815260200190815260200160002060030160006101000a81548160ff021916908360028111156111e357fe5b021790555080600454016004819055506111fd82846119da565b7f08153fa6bf2aa0b5120880e44639943e66f59045ab39e106f57f16c691391cf2600b54838360006040518085815260200184815260200183815260200182600281111561124757fe5b60ff16815260200194505050505060405180910390a1505050565b600047905090565b600b5481565b6009600081548092919060010191905055506040518060a0016040528060095481526020018381526020013373ffffffffffffffffffffffffffffffffffffffff16815260200182815260200160008152506008600060095481526020019081526020016000206000820151816000015560208201518160010190805190602001906112fd929190611bfe565b5060408201518160020160006101000a81548173ffffffffffffffffffffffffffffffffffffffff021916908373ffffffffffffffffffffffffffffffffffffffff1602179055506060820151816003019080519060200190611361929190611bfe565b50608082015181600401559050507f2c23a012bba1b1f6dc5942fedb63052bc131011a95a281a82aad3bba175083c760095483338460405180858152602001806020018473ffffffffffffffffffffffffffffffffffffffff1673ffffffffffffffffffffffffffffffffffffffff16815260200180602001838103835286818151815260200191508051906020019080838360005b838110156114125780820151818401526020810190506113f7565b50505050905090810190601f16801561143f5780820380516001836020036101000a031916815260200191505b50838103825284818151815260200191508051906020019080838360005b8381101561147857808201518184015260208101905061145d565b50505050905090810190601f1680156114a55780820380516001836020036101000a031916815260200191505b50965050505050505060405180910390a15050565b60006008600083815260200190815260200160002060020160009054906101000a900473ffffffffffffffffffffffffffffffffffffffff1673ffffffffffffffffffffffffffffffffffffffff163373ffffffffffffffffffffffffffffffffffffffff161461152a57600080fd5b6008600083815260200190815260200160002060020160009054906101000a900473ffffffffffffffffffffffffffffffffffffffff1673ffffffffffffffffffffffffffffffffffffffff16319050919050565b60008060008060009054906101000a900473ffffffffffffffffffffffffffffffffffffffff1673ffffffffffffffffffffffffffffffffffffffff163373ffffffffffffffffffffffffffffffffffffffff1614611629576040517f08c379a0000000000000000000000000000000000000000000000000000000008152600401808060200182810382526032815260200180611d186032913960400191505060405180910390fd5b600c600085815260200190815260200160002060010154600c600086815260200190815260200160002060020154600c6000878152602001908152602001600020600301549250925092509193909250565b6000600b54905090565b6000600754905090565b60095481565b6000600954905090565b60008060009054906101000a900473ffffffffffffffffffffffffffffffffffffffff1673ffffffffffffffffffffffffffffffffffffffff163373ffffffffffffffffffffffffffffffffffffffff16146116fa57600080fd5b6007546005541115611757576040517f08c379a000000000000000000000000000000000000000000000000000000000815260040180806020018281038252603d815260200180611d8a603d913960400191505060405180910390fd5b6000600454116117cf576040517f08c379a000000000000000000000000000000000000000000000000000000000815260040180806020018281038252601f8152602001807f5468657265206973206e6f206d696c6b20617661696c61626c65206e6f772e0081525060200191505060405180910390fd5b60066000600554815260200190815260200160002060030154600454111561185257600660006005548152602001908152602001600020600301546004540360048190555060006006600060055481526020019081526020016000206003018190555060056000815480929190600101919050555061184c61169f565b506118f4565b6006600060055481526020019081526020016000206003015460045414156118b15760006004819055506000600660006005548152602001908152602001600020600301819055506005600081548092919060010191905055506118f3565b60045460066000600554815260200190815260200160002060030154036006600060055481526020019081526020016000206003018190555060006004819055505b5b600554905090565b600a6020528060005260406000206000915090508060000154908060010154908060020154908060030160009054906101000a900460ff16905084565b6000809054906101000a900473ffffffffffffffffffffffffffffffffffffffff1681565b60066020528060005260406000206000915090508060000154908060010160009054906101000a900473ffffffffffffffffffffffffffffffffffffffff16908060020154908060030154905084565b6000808214806119cb57508282838502925082816119c857fe5b04145b6119d457600080fd5b92915050565b600b548111158015611a255750600160028111156119f457fe5b600a600083815260200190815260200160002060030160009054906101000a900460ff166002811115611a2357fe5b145b611a7a576040517f08c379a0000000000000000000000000000000000000000000000000000000008152600401808060200182810382526040815260200180611d4a6040913960400191505060405180910390fd5b60006008600084815260200190815260200160002060020160009054906101000a900473ffffffffffffffffffffffffffffffffffffffff16905060006064600a6000858152602001908152602001600020600201540290508173ffffffffffffffffffffffffffffffffffffffff166108fc829081150290604051600060405180830381858888f19350505050158015611b19573d6000803e3d6000fd5b506002600a600085815260200190815260200160002060030160006101000a81548160ff02191690836002811115611b4d57fe5b021790555082600c600086815260200190815260200160002060000181905550600a600084815260200190815260200160002060020154600c60008681526020019081526020016000206002018190555080600c6000868152602001908152602001600020600301819055507fa8e6f9f627e4d2eb0f2887148343c7db7d11e76bdf6b93363126267954a42a518484604051808381526020018281526020019250505060405180910390a150505050565b828054600181600116156101000203166002900490600052602060002090601f016020900481019282601f10611c3f57805160ff1916838001178555611c6d565b82800160010185558215611c6d579182015b82811115611c6c578251825591602001919060010190611c51565b5b509050611c7a9190611c7e565b5090565b611ca091905b80821115611c9c576000816000905550600101611c84565b5090565b9056fe506c6561736520656e74657220612076616c6964206d696c6b696e672061637469766974792077686f73652073746174757320697320535441525445442e506c6561736520656e74657220612076616c6964206d696c6b696e6720616374697669747920756e64657220796f7572206e616d652e4f6e6c792074686520636f6e7472616374206f776e65722063616e20636865636b207061796d656e742064657461696c732e506c6561736520656e74657220612076616c6964206d696c6b696e672061637469766974792077686f73652073746174757320697320434f4d504c455445442e54686520696e7665746d656e7420494420656e74657272656420657863656564732074686520746f74616c20696e766573746d656e7420636f756e742ea265627a7a72315820b0e6b7ecd439a6c2857dab1e52bc6b6499d4a210ef153d73f9ff9912079fe34c64736f6c63430005100032",
  "source": "// SPDX-License-Identifier: <SPDX-License>\n/**\n * Functionalities:\n * 1. Register a list of farmers, their names,Ethereum addresses (for payment), locations, number of milking activities.\n * 2. Each milking activity is a struct containing: id, farmer id, milking status.\n * 3. Milking status has 3 possible values: STARTED, COMPLETED, PAID; only COMPLETED milking activities can be paid and changed to PAID. Payment amount for milking activities is calculated by quantity * pricePerKilo.\n * 3. Multiple investors can deposit money to the smart contract. The totalMilk is distributed to investors based on amount of their investments. The investments are satisfied on a first-come, first-serve basis. Satisfied investments are removed from the storage.\n * 4. Corresponding events are emitted.\n**/\n\npragma solidity >=0.4.22;\n\nimport \"./FarmToken.sol\";\n\ncontract AutomaticPayment {\n    address public admin;\n    FarmToken public tokenContract;\n    uint public tokenPrice; // in Wei\n    uint public tokenSold;\n    uint constant pricePerKilo = 100; // in token per kilo\n    uint totalMilk;\n    uint investmentToSatisfy = 1; // default value; automatically updated after milk is distributed by calling the distributeMilk function\n    \n    enum MilkingStatus {\n        STARTED,\n        COMPLETED,\n        PAID\n    }\n    \n    struct Investment {\n        uint id;\n        address investorAddr;\n        uint amount; // amount of Wei invested\n        uint expectation; // how much milk is expected (in kilo)\n    }\n\n    struct Farmer {\n        uint id;\n        string name;\n        address addr;\n        string location;\n        uint milking_count;\n    }\n\n    struct MilkingActivity {\n        uint id;\n        uint farmerID;\n        uint quantity;\n        MilkingStatus status;\n    }\n    \n    struct Payment {\n        uint milkingID;\n        uint farmerID;\n        uint quantity;\n        uint payAmount;\n    }\n    \n    mapping (uint => Investment) public investments;\n    uint public investmentCount;\n    \n    mapping (uint => Farmer) public farmers; // store Farmers\n    uint public farmerCount;\n\n    mapping (uint => MilkingActivity) public milking;\n    uint public milkingCount;\n    \n    mapping (uint => Payment) public payments;\n    \n    event NewInvestment (\n        uint amount\n    );\n    \n    event FarmerAdded (\n        uint id,\n        string name,\n        address addr,\n        string location\n    );\n    \n    event MilkingAdded (\n        uint id,\n        uint farmerID,\n        uint quantity,\n        MilkingStatus status\n    );\n    \n    event MilkingUpdated (\n        uint id,\n        uint farmerID,\n        uint quantity,\n        MilkingStatus status\n    );\n    \n    event NewPayment (\n        uint farmerID,\n        uint milkingID\n    );\n\n    constructor(FarmToken _tokenContract, uint _tokenPrice) public {\n        admin = msg.sender;\n        tokenContract = _tokenContract;\n        tokenPrice = _tokenPrice;\n    }\n\n    function multiply(uint x, uint y) internal pure returns (uint z) {\n        require(y == 0 || (z = x * y) / y == x);\n    }\n\n    function buyTokens(uint _numOfTokens) public payable {\n        require(\n            msg.value == multiply(_numOfTokens, tokenPrice)\n        );\n\n        require(\n            // tokenContract.getBalance(admin) >= _numOfTokens\n            tokenContract.balanceOf(address(this)) >= _numOfTokens\n        );\n\n        require(\n            tokenContract.transfer(msg.sender, _numOfTokens)\n        );\n\n        tokenSold += _numOfTokens; // keep track of tokens that are sold\n    }\n    \n    // can be called by multiple investors\n    function invest(uint _amount) external payable {\n        require(\n            msg.value == _amount\n        );\n        \n        investmentCount++;\n        investments[investmentCount].investorAddr = msg.sender;\n        investments[investmentCount].amount = _amount;\n        investments[investmentCount].expectation = _amount/pricePerKilo; // assuming all integer values\n        \n        emit NewInvestment(_amount);\n    }\n\n    function getInvestmentCount() external view returns (uint) {\n        return investmentCount;\n    }\n\n    function getInvestment(uint _investmentID) external view \n        returns (\n            address investor,\n            uint amount,\n            uint expectation\n        ) {\n            return (investments[_investmentID].investorAddr, investments[_investmentID].amount, investments[_investmentID].expectation);\n    }\n\n    function contractBalance() external view returns (uint){\n        return address(this).balance;\n    }\n\n    function addFarmer (string memory _name, string memory _location) public {\n        farmerCount++;\n        farmers[farmerCount] = Farmer(farmerCount, _name, msg.sender, _location, 0);\n        \n        emit FarmerAdded(farmerCount, _name, msg.sender, _location);\n    }\n\n    function getFarmerCount() external view returns (uint) {\n        return farmerCount;\n    }\n\n    function addMilkingActivity (uint _farmerID) public {\n        milkingCount++;\n        milking[milkingCount] = MilkingActivity(milkingCount, _farmerID, 0, MilkingStatus.STARTED); // update milking\n        \n        emit MilkingAdded(milkingCount, _farmerID, 0, MilkingStatus.STARTED);\n    }\n\n    function getMilkingCount() external view returns (uint) {\n        return milkingCount;\n    }\n    \n    // only farmer of a particular milking activity can update its status\n    // only milking activities that are STARTED can be updated to COMPLETED\n    function updateMilkingByID (uint _milkingID, uint _farmerID, uint _quantity) public {\n        require(\n            milking[_milkingID].farmerID == _farmerID,\n            \"Please enter a valid milking activity under your name.\"\n        );\n        \n        require(\n            milking[_milkingID].status == MilkingStatus.STARTED,\n            \"Please enter a valid milking activity whose status is STARTED.\"\n        );\n        \n        milking[_milkingID].quantity = _quantity;\n        milking[_milkingID].status = MilkingStatus.COMPLETED;\n        totalMilk = totalMilk + _quantity; // update totalMilk for distribution\n        \n        payFarmer(_farmerID, _milkingID);\n        \n        emit MilkingUpdated(milkingCount, _farmerID, _quantity, MilkingStatus.STARTED);\n    }\n\n    function getTotalMilk() external view returns (uint) {\n        return totalMilk;\n    }\n\n    // called automatically when the status of a milking activity becomes COMPLETED\n    function payFarmer(uint _farmerID, uint _milkingID) private {\n        require(\n            _milkingID <= milkingCount &&\n            milking[_milkingID].status == MilkingStatus.COMPLETED,\n            \"Please enter a valid milking activity whose status is COMPLETED.\"\n        );\n        \n        address payable recipient = address(uint160(farmers[_farmerID].addr));\n        uint amount = milking[_milkingID].quantity * pricePerKilo;\n        \n        recipient.transfer(amount);\n        milking[_milkingID].status = MilkingStatus.PAID;\n        \n        payments[_farmerID].milkingID = _milkingID;\n        payments[_farmerID].quantity = milking[_milkingID].quantity;\n        payments[_farmerID].payAmount = amount;\n        \n        emit NewPayment(_farmerID, _milkingID);\n    }\n    \n    function viewPayment(uint _milkingID) external view \n        returns (\n            uint,\n            uint,\n            uint\n        ) \n    {\n        require(\n            msg.sender == admin,\n            \"Only the contract owner can check payment details.\"\n        );\n        \n        return (payments[_milkingID].farmerID, payments[_milkingID].quantity, payments[_milkingID].payAmount);\n    }\n\n    function getFarmerBalance(uint _farmerID) external view returns (uint) {\n        require(\n            msg.sender == farmers[_farmerID].addr\n        );\n\n        return farmers[_farmerID].addr.balance;\n    }\n    \n    // called by the contract owner after collecting a number of investments and some quantity of milk\n    // returns the next investmentToSatisfy and totalMilk remaining \n    // always distribute from the first investment\n    function distributeMilk () public returns(uint) {\n        require(\n            msg.sender == admin\n        );\n        \n        require(\n            investmentToSatisfy <= investmentCount,\n            \"The invetment ID enterred exceeds the total investment count.\"\n        );\n        \n        require(\n            totalMilk > 0,\n            \"There is no milk available now.\"\n        );\n        \n        if (totalMilk > investments[investmentToSatisfy].expectation) {\n            totalMilk = totalMilk - investments[investmentToSatisfy].expectation;\n            investments[investmentToSatisfy].expectation = 0; // set to 0 as expectation is satisfied\n            investmentToSatisfy++;\n            \n            distributeMilk(); // if there is remaning milk, process the next investment \n            \n        } else if (totalMilk == investments[investmentToSatisfy].expectation) {\n            totalMilk = 0;\n            investments[investmentToSatisfy].expectation = 0;\n            investmentToSatisfy++;\n        } else {\n            investments[investmentToSatisfy].expectation = investments[investmentToSatisfy].expectation - totalMilk;\n            totalMilk = 0;\n        }\n        \n        return investmentToSatisfy; //return the id of the next investmentToSatisfy\n    }\n\n}\n",
  "sourcePath": "/Users/yininghu/Documents/work/dairy-provenance/contracts/AutomaticPayment.sol",
  "compiler": {
    "name": "solc",
    "version": "0.5.16+commit.9c3226ce.Emscripten.clang"
  },
  "schemaVersion": "3.4.1",
  "updatedAt": "2021-06-15T04:51:12.626Z",
  "devdoc": {
    "methods": {}
  },
  "userdoc": {
    "methods": {}
  }
}