{
  "contractName": "AutomaticPayment",
  "abi": [
    {
      "inputs": [
        {
          "internalType": "contract FarmToken",
          "name": "_tokenContract",
          "type": "address"
        },
        {
          "internalType": "uint256",
          "name": "_tokenPrice",
          "type": "uint256"
        }
      ],
      "payable": false,
      "stateMutability": "nonpayable",
      "type": "constructor"
    },
    {
      "anonymous": false,
      "inputs": [
        {
          "indexed": false,
          "internalType": "uint256",
          "name": "id",
          "type": "uint256"
        },
        {
          "indexed": false,
          "internalType": "string",
          "name": "name",
          "type": "string"
        },
        {
          "indexed": false,
          "internalType": "address",
          "name": "addr",
          "type": "address"
        },
        {
          "indexed": false,
          "internalType": "string",
          "name": "location",
          "type": "string"
        }
      ],
      "name": "FarmerAdded",
      "type": "event"
    },
    {
      "anonymous": false,
      "inputs": [
        {
          "indexed": false,
          "internalType": "uint256",
          "name": "id",
          "type": "uint256"
        },
        {
          "indexed": false,
          "internalType": "uint256",
          "name": "farmerID",
          "type": "uint256"
        },
        {
          "indexed": false,
          "internalType": "uint256",
          "name": "quantity",
          "type": "uint256"
        },
        {
          "indexed": false,
          "internalType": "enum AutomaticPayment.MilkingStatus",
          "name": "status",
          "type": "uint8"
        }
      ],
      "name": "MilkingAdded",
      "type": "event"
    },
    {
      "anonymous": false,
      "inputs": [
        {
          "indexed": false,
          "internalType": "uint256",
          "name": "id",
          "type": "uint256"
        },
        {
          "indexed": false,
          "internalType": "uint256",
          "name": "farmerID",
          "type": "uint256"
        },
        {
          "indexed": false,
          "internalType": "uint256",
          "name": "quantity",
          "type": "uint256"
        },
        {
          "indexed": false,
          "internalType": "enum AutomaticPayment.MilkingStatus",
          "name": "status",
          "type": "uint8"
        }
      ],
      "name": "MilkingUpdated",
      "type": "event"
    },
    {
      "anonymous": false,
      "inputs": [
        {
          "indexed": false,
          "internalType": "uint256",
          "name": "amount",
          "type": "uint256"
        }
      ],
      "name": "NewInvestment",
      "type": "event"
    },
    {
      "anonymous": false,
      "inputs": [
        {
          "indexed": false,
          "internalType": "uint256",
          "name": "farmerID",
          "type": "uint256"
        },
        {
          "indexed": false,
          "internalType": "uint256",
          "name": "milkingID",
          "type": "uint256"
        }
      ],
      "name": "NewPayment",
      "type": "event"
    },
    {
      "constant": true,
      "inputs": [],
      "name": "admin",
      "outputs": [
        {
          "internalType": "address",
          "name": "",
          "type": "address"
        }
      ],
      "payable": false,
      "stateMutability": "view",
      "type": "function"
    },
    {
      "constant": true,
      "inputs": [],
      "name": "farmerCount",
      "outputs": [
        {
          "internalType": "uint256",
          "name": "",
          "type": "uint256"
        }
      ],
      "payable": false,
      "stateMutability": "view",
      "type": "function"
    },
    {
      "constant": true,
      "inputs": [
        {
          "internalType": "uint256",
          "name": "",
          "type": "uint256"
        }
      ],
      "name": "farmers",
      "outputs": [
        {
          "internalType": "uint256",
          "name": "id",
          "type": "uint256"
        },
        {
          "internalType": "string",
          "name": "name",
          "type": "string"
        },
        {
          "internalType": "address",
          "name": "addr",
          "type": "address"
        },
        {
          "internalType": "string",
          "name": "location",
          "type": "string"
        },
        {
          "internalType": "uint256",
          "name": "milking_count",
          "type": "uint256"
        }
      ],
      "payable": false,
      "stateMutability": "view",
      "type": "function"
    },
    {
      "constant": true,
      "inputs": [],
      "name": "investmentCount",
      "outputs": [
        {
          "internalType": "uint256",
          "name": "",
          "type": "uint256"
        }
      ],
      "payable": false,
      "stateMutability": "view",
      "type": "function"
    },
    {
      "constant": true,
      "inputs": [
        {
          "internalType": "uint256",
          "name": "",
          "type": "uint256"
        }
      ],
      "name": "investments",
      "outputs": [
        {
          "internalType": "uint256",
          "name": "id",
          "type": "uint256"
        },
        {
          "internalType": "address",
          "name": "investorAddr",
          "type": "address"
        },
        {
          "internalType": "uint256",
          "name": "amount",
          "type": "uint256"
        },
        {
          "internalType": "uint256",
          "name": "expectation",
          "type": "uint256"
        }
      ],
      "payable": false,
      "stateMutability": "view",
      "type": "function"
    },
    {
      "constant": true,
      "inputs": [
        {
          "internalType": "uint256",
          "name": "",
          "type": "uint256"
        }
      ],
      "name": "milking",
      "outputs": [
        {
          "internalType": "uint256",
          "name": "id",
          "type": "uint256"
        },
        {
          "internalType": "uint256",
          "name": "farmerID",
          "type": "uint256"
        },
        {
          "internalType": "uint256",
          "name": "quantity",
          "type": "uint256"
        },
        {
          "internalType": "enum AutomaticPayment.MilkingStatus",
          "name": "status",
          "type": "uint8"
        }
      ],
      "payable": false,
      "stateMutability": "view",
      "type": "function"
    },
    {
      "constant": true,
      "inputs": [],
      "name": "milkingCount",
      "outputs": [
        {
          "internalType": "uint256",
          "name": "",
          "type": "uint256"
        }
      ],
      "payable": false,
      "stateMutability": "view",
      "type": "function"
    },
    {
      "constant": true,
      "inputs": [
        {
          "internalType": "uint256",
          "name": "",
          "type": "uint256"
        }
      ],
      "name": "payments",
      "outputs": [
        {
          "internalType": "uint256",
          "name": "milkingID",
          "type": "uint256"
        },
        {
          "internalType": "uint256",
          "name": "farmerID",
          "type": "uint256"
        },
        {
          "internalType": "uint256",
          "name": "quantity",
          "type": "uint256"
        },
        {
          "internalType": "uint256",
          "name": "payAmount",
          "type": "uint256"
        }
      ],
      "payable": false,
      "stateMutability": "view",
      "type": "function"
    },
    {
      "constant": true,
      "inputs": [],
      "name": "tokenContract",
      "outputs": [
        {
          "internalType": "contract FarmToken",
          "name": "",
          "type": "address"
        }
      ],
      "payable": false,
      "stateMutability": "view",
      "type": "function"
    },
    {
      "constant": true,
      "inputs": [],
      "name": "tokenPrice",
      "outputs": [
        {
          "internalType": "uint256",
          "name": "",
          "type": "uint256"
        }
      ],
      "payable": false,
      "stateMutability": "view",
      "type": "function"
    },
    {
      "constant": true,
      "inputs": [],
      "name": "tokenSold",
      "outputs": [
        {
          "internalType": "uint256",
          "name": "",
          "type": "uint256"
        }
      ],
      "payable": false,
      "stateMutability": "view",
      "type": "function"
    },
    {
      "constant": false,
      "inputs": [
        {
          "internalType": "uint256",
          "name": "_numOfTokens",
          "type": "uint256"
        }
      ],
      "name": "buyTokens",
      "outputs": [],
      "payable": true,
      "stateMutability": "payable",
      "type": "function"
    },
    {
      "constant": true,
      "inputs": [
        {
          "internalType": "address",
          "name": "_addr",
          "type": "address"
        }
      ],
      "name": "getTokenBalance",
      "outputs": [
        {
          "internalType": "uint256",
          "name": "",
          "type": "uint256"
        }
      ],
      "payable": false,
      "stateMutability": "view",
      "type": "function"
    },
    {
      "constant": true,
      "inputs": [],
      "name": "getInvestmentCount",
      "outputs": [
        {
          "internalType": "uint256",
          "name": "",
          "type": "uint256"
        }
      ],
      "payable": false,
      "stateMutability": "view",
      "type": "function"
    },
    {
      "constant": true,
      "inputs": [
        {
          "internalType": "uint256",
          "name": "_investmentID",
          "type": "uint256"
        }
      ],
      "name": "getInvestment",
      "outputs": [
        {
          "internalType": "address",
          "name": "investor",
          "type": "address"
        },
        {
          "internalType": "uint256",
          "name": "amount",
          "type": "uint256"
        },
        {
          "internalType": "uint256",
          "name": "expectation",
          "type": "uint256"
        }
      ],
      "payable": false,
      "stateMutability": "view",
      "type": "function"
    },
    {
      "constant": false,
      "inputs": [
        {
          "internalType": "uint256",
          "name": "_investmentID",
          "type": "uint256"
        },
        {
          "internalType": "uint256",
          "name": "_amount",
          "type": "uint256"
        }
      ],
      "name": "withdrawInvestment",
      "outputs": [],
      "payable": false,
      "stateMutability": "nonpayable",
      "type": "function"
    },
    {
      "constant": true,
      "inputs": [],
      "name": "contractBalance",
      "outputs": [
        {
          "internalType": "uint256",
          "name": "",
          "type": "uint256"
        }
      ],
      "payable": false,
      "stateMutability": "view",
      "type": "function"
    },
    {
      "constant": false,
      "inputs": [
        {
          "internalType": "string",
          "name": "_name",
          "type": "string"
        },
        {
          "internalType": "string",
          "name": "_location",
          "type": "string"
        }
      ],
      "name": "addFarmer",
      "outputs": [],
      "payable": false,
      "stateMutability": "nonpayable",
      "type": "function"
    },
    {
      "constant": true,
      "inputs": [],
      "name": "getFarmerCount",
      "outputs": [
        {
          "internalType": "uint256",
          "name": "",
          "type": "uint256"
        }
      ],
      "payable": false,
      "stateMutability": "view",
      "type": "function"
    },
    {
      "constant": false,
      "inputs": [
        {
          "internalType": "uint256",
          "name": "_farmerID",
          "type": "uint256"
        }
      ],
      "name": "addMilkingActivity",
      "outputs": [],
      "payable": false,
      "stateMutability": "nonpayable",
      "type": "function"
    },
    {
      "constant": true,
      "inputs": [],
      "name": "getMilkingCount",
      "outputs": [
        {
          "internalType": "uint256",
          "name": "",
          "type": "uint256"
        }
      ],
      "payable": false,
      "stateMutability": "view",
      "type": "function"
    },
    {
      "constant": false,
      "inputs": [
        {
          "internalType": "uint256",
          "name": "_milkingID",
          "type": "uint256"
        },
        {
          "internalType": "uint256",
          "name": "_farmerID",
          "type": "uint256"
        },
        {
          "internalType": "uint256",
          "name": "_quantity",
          "type": "uint256"
        }
      ],
      "name": "updateMilkingByID",
      "outputs": [],
      "payable": false,
      "stateMutability": "nonpayable",
      "type": "function"
    },
    {
      "constant": true,
      "inputs": [],
      "name": "getTotalMilk",
      "outputs": [
        {
          "internalType": "uint256",
          "name": "",
          "type": "uint256"
        }
      ],
      "payable": false,
      "stateMutability": "view",
      "type": "function"
    },
    {
      "constant": true,
      "inputs": [
        {
          "internalType": "uint256",
          "name": "_milkingID",
          "type": "uint256"
        }
      ],
      "name": "viewPayment",
      "outputs": [
        {
          "internalType": "uint256",
          "name": "",
          "type": "uint256"
        },
        {
          "internalType": "uint256",
          "name": "",
          "type": "uint256"
        },
        {
          "internalType": "uint256",
          "name": "",
          "type": "uint256"
        }
      ],
      "payable": false,
      "stateMutability": "view",
      "type": "function"
    },
    {
      "constant": false,
      "inputs": [],
      "name": "distributeMilk",
      "outputs": [
        {
          "internalType": "uint256",
          "name": "",
          "type": "uint256"
        }
      ],
      "payable": false,
      "stateMutability": "nonpayable",
      "type": "function"
    }
  ],
  "bytecode": "0x6080604052600160055534801561001557600080fd5b506040516121173803806121178339818101604052604081101561003857600080fd5b810190808051906020019092919080519060200190929190505050336000806101000a81548173ffffffffffffffffffffffffffffffffffffffff021916908373ffffffffffffffffffffffffffffffffffffffff16021790555081600160006101000a81548173ffffffffffffffffffffffffffffffffffffffff021916908373ffffffffffffffffffffffffffffffffffffffff16021790555080600281905550505061202b806100ec6000396000f3fe6080604052600436106101655760003560e01c80638b3e4334116100d1578063b8d846971161008a578063da73b85611610064578063da73b856146108db578063f7373b6414610906578063f851a44014610978578063fd345c8a146109cf57610165565b8063b8d846971461085a578063bd45b39714610885578063c4a8b5d5146108b057610165565b80638b3e4334146105ce5780638b7afe2e1461061d5780639361c43414610648578063991cd78b14610673578063a5b91d14146107d2578063b8726d0f1461082f57610165565b80633aecd0e3116101235780633aecd0e3146102f7578063519ee19e1461035c57806355a373d6146103875780637ff9b596146103de57806387d81789146104095780638afdd6691461046d57610165565b80621fdabf1461016a57806309b49c46146101a557806322ae634f146101ea578063246b0e5c146102735780632a439eed1461029e5780633610724e146102c9575b600080fd5b34801561017657600080fd5b506101a36004803603602081101561018d57600080fd5b8101908080359060200190929190505050610a5f565b005b3480156101b157600080fd5b506101e8600480360360408110156101c857600080fd5b810190808035906020019092919080359060200190929190505050610b63565b005b3480156101f657600080fd5b506102236004803603602081101561020d57600080fd5b8101908080359060200190929190505050610d07565b604051808473ffffffffffffffffffffffffffffffffffffffff1673ffffffffffffffffffffffffffffffffffffffff168152602001838152602001828152602001935050505060405180910390f35b34801561027f57600080fd5b50610288610d7e565b6040518082815260200191505060405180910390f35b3480156102aa57600080fd5b506102b3610d84565b6040518082815260200191505060405180910390f35b6102f5600480360360208110156102df57600080fd5b8101908080359060200190929190505050610d8e565b005b34801561030357600080fd5b506103466004803603602081101561031a57600080fd5b81019080803573ffffffffffffffffffffffffffffffffffffffff169060200190929190505050610fce565b6040518082815260200191505060405180910390f35b34801561036857600080fd5b506103716110b1565b6040518082815260200191505060405180910390f35b34801561039357600080fd5b5061039c6110b7565b604051808273ffffffffffffffffffffffffffffffffffffffff1673ffffffffffffffffffffffffffffffffffffffff16815260200191505060405180910390f35b3480156103ea57600080fd5b506103f36110dd565b6040518082815260200191505060405180910390f35b34801561041557600080fd5b506104426004803603602081101561042c57600080fd5b81019080803590602001909291905050506110e3565b6040518085815260200184815260200183815260200182815260200194505050505060405180910390f35b34801561047957600080fd5b506104a66004803603602081101561049057600080fd5b8101908080359060200190929190505050611113565b60405180868152602001806020018573ffffffffffffffffffffffffffffffffffffffff1673ffffffffffffffffffffffffffffffffffffffff16815260200180602001848152602001838103835287818151815260200191508051906020019080838360005b8381101561052857808201518184015260208101905061050d565b50505050905090810190601f1680156105555780820380516001836020036101000a031916815260200191505b50838103825285818151815260200191508051906020019080838360005b8381101561058e578082015181840152602081019050610573565b50505050905090810190601f1680156105bb5780820380516001836020036101000a031916815260200191505b5097505050505050505060405180910390f35b3480156105da57600080fd5b5061061b600480360360608110156105f157600080fd5b81019080803590602001909291908035906020019092919080359060200190929190505050611299565b005b34801561062957600080fd5b50610632611466565b6040518082815260200191505060405180910390f35b34801561065457600080fd5b5061065d61146e565b6040518082815260200191505060405180910390f35b34801561067f57600080fd5b506107d06004803603604081101561069657600080fd5b81019080803590602001906401000000008111156106b357600080fd5b8201836020820111156106c557600080fd5b803590602001918460018302840111640100000000831117156106e757600080fd5b91908080601f016020809104026020016040519081016040528093929190818152602001838380828437600081840152601f19601f8201169050808301925050505050505091929192908035906020019064010000000081111561074a57600080fd5b82018360208201111561075c57600080fd5b8035906020019184600183028401116401000000008311171561077e57600080fd5b91908080601f016020809104026020016040519081016040528093929190818152602001838380828437600081840152601f19601f820116905080830192505050505050509192919290505050611474565b005b3480156107de57600080fd5b5061080b600480360360208110156107f557600080fd5b81019080803590602001909291905050506116be565b60405180848152602001838152602001828152602001935050505060405180910390f35b34801561083b57600080fd5b506108446117ba565b6040518082815260200191505060405180910390f35b34801561086657600080fd5b5061086f6117c4565b6040518082815260200191505060405180910390f35b34801561089157600080fd5b5061089a6117ce565b6040518082815260200191505060405180910390f35b3480156108bc57600080fd5b506108c56117d4565b6040518082815260200191505060405180910390f35b3480156108e757600080fd5b506108f06117de565b6040518082815260200191505060405180910390f35b34801561091257600080fd5b5061093f6004803603602081101561092957600080fd5b8101908080359060200190929190505050611a3b565b6040518085815260200184815260200183815260200182600281111561096157fe5b60ff16815260200194505050505060405180910390f35b34801561098457600080fd5b5061098d611a78565b604051808273ffffffffffffffffffffffffffffffffffffffff1673ffffffffffffffffffffffffffffffffffffffff16815260200191505060405180910390f35b3480156109db57600080fd5b50610a08600480360360208110156109f257600080fd5b8101908080359060200190929190505050611a9d565b604051808581526020018473ffffffffffffffffffffffffffffffffffffffff1673ffffffffffffffffffffffffffffffffffffffff16815260200183815260200182815260200194505050505060405180910390f35b600b600081548092919060010191905055506040518060800160405280600b5481526020018281526020016000815260200160006002811115610a9e57fe5b815250600a6000600b54815260200190815260200160002060008201518160000155602082015181600101556040820151816002015560608201518160030160006101000a81548160ff02191690836002811115610af857fe5b02179055509050507f8181afd8e5a058b4804a6614cd923fa69835423d05fe1f5fbd30febd4e13561d600b548260008060405180858152602001848152602001838152602001826002811115610b4a57fe5b60ff16815260200194505050505060405180910390a150565b3373ffffffffffffffffffffffffffffffffffffffff166006600084815260200190815260200160002060010160009054906101000a900473ffffffffffffffffffffffffffffffffffffffff1673ffffffffffffffffffffffffffffffffffffffff1614610bd157600080fd5b8060066000848152602001908152602001600020600201541015610bf457600080fd5b6000339050600160009054906101000a900473ffffffffffffffffffffffffffffffffffffffff1673ffffffffffffffffffffffffffffffffffffffff1663a9059cbb82846040518363ffffffff1660e01b8152600401808373ffffffffffffffffffffffffffffffffffffffff1673ffffffffffffffffffffffffffffffffffffffff16815260200182815260200192505050602060405180830381600087803b158015610ca257600080fd5b505af1158015610cb6573d6000803e3d6000fd5b505050506040513d6020811015610ccc57600080fd5b810190808051906020019092919050505050816006600085815260200190815260200160002060020160008282540392505081905550505050565b60008060006006600085815260200190815260200160002060010160009054906101000a900473ffffffffffffffffffffffffffffffffffffffff16600660008681526020019081526020016000206002015460066000878152602001908152602001600020600301549250925092509193909250565b60075481565b6000600454905090565b610d9a81600254611aed565b3414610da557600080fd5b80600160009054906101000a900473ffffffffffffffffffffffffffffffffffffffff1673ffffffffffffffffffffffffffffffffffffffff166370a08231306040518263ffffffff1660e01b8152600401808273ffffffffffffffffffffffffffffffffffffffff1673ffffffffffffffffffffffffffffffffffffffff16815260200191505060206040518083038186803b158015610e4557600080fd5b505afa158015610e59573d6000803e3d6000fd5b505050506040513d6020811015610e6f57600080fd5b81019080805190602001909291905050501015610ed7576040517f08c379a0000000000000000000000000000000000000000000000000000000008152600401808060200182810382526053815260200180611f276053913960600191505060405180910390fd5b806003600082825401925050819055506007600081548092919060010191905055503360066000600754815260200190815260200160002060010160006101000a81548173ffffffffffffffffffffffffffffffffffffffff021916908373ffffffffffffffffffffffffffffffffffffffff160217905550806006600060075481526020019081526020016000206002018190555060648181610f7757fe5b04600660006007548152602001908152602001600020600301819055507f387c02e3acf09de4e6ae95a66560ef4ddd5d6753d186b6019b4e59dbf5821ead816040518082815260200191505060405180910390a150565b6000600160009054906101000a900473ffffffffffffffffffffffffffffffffffffffff1673ffffffffffffffffffffffffffffffffffffffff166370a08231836040518263ffffffff1660e01b8152600401808273ffffffffffffffffffffffffffffffffffffffff1673ffffffffffffffffffffffffffffffffffffffff16815260200191505060206040518083038186803b15801561106f57600080fd5b505afa158015611083573d6000803e3d6000fd5b505050506040513d602081101561109957600080fd5b81019080805190602001909291905050509050919050565b60035481565b600160009054906101000a900473ffffffffffffffffffffffffffffffffffffffff1681565b60025481565b600c6020528060005260406000206000915090508060000154908060010154908060020154908060030154905084565b6008602052806000526040600020600091509050806000015490806001018054600181600116156101000203166002900480601f0160208091040260200160405190810160405280929190818152602001828054600181600116156101000203166002900480156111c55780601f1061119a576101008083540402835291602001916111c5565b820191906000526020600020905b8154815290600101906020018083116111a857829003601f168201915b5050505050908060020160009054906101000a900473ffffffffffffffffffffffffffffffffffffffff1690806003018054600181600116156101000203166002900480601f0160208091040260200160405190810160405280929190818152602001828054600181600116156101000203166002900480156112895780601f1061125e57610100808354040283529160200191611289565b820191906000526020600020905b81548152906001019060200180831161126c57829003601f168201915b5050505050908060040154905085565b81600a60008581526020019081526020016000206001015414611307576040517f08c379a0000000000000000000000000000000000000000000000000000000008152600401808060200182810382526036815260200180611ebf6036913960400191505060405180910390fd5b6000600281111561131457fe5b600a600085815260200190815260200160002060030160009054906101000a900460ff16600281111561134357fe5b14611399576040517f08c379a000000000000000000000000000000000000000000000000000000000815260040180806020018281038252603e815260200180611e81603e913960400191505060405180910390fd5b80600a6000858152602001908152602001600020600201819055506001600a600085815260200190815260200160002060030160006101000a81548160ff021916908360028111156113e757fe5b021790555080600454016004819055506114018284611b19565b7f08153fa6bf2aa0b5120880e44639943e66f59045ab39e106f57f16c691391cf2600b54838360006040518085815260200184815260200183815260200182600281111561144b57fe5b60ff16815260200194505050505060405180910390a1505050565b600047905090565b600b5481565b6009600081548092919060010191905055506040518060a0016040528060095481526020018381526020013373ffffffffffffffffffffffffffffffffffffffff1681526020018281526020016000815250600860006009548152602001908152602001600020600082015181600001556020820151816001019080519060200190611501929190611ddb565b5060408201518160020160006101000a81548173ffffffffffffffffffffffffffffffffffffffff021916908373ffffffffffffffffffffffffffffffffffffffff1602179055506060820151816003019080519060200190611565929190611ddb565b50608082015181600401559050507f2c23a012bba1b1f6dc5942fedb63052bc131011a95a281a82aad3bba175083c760095483338460405180858152602001806020018473ffffffffffffffffffffffffffffffffffffffff1673ffffffffffffffffffffffffffffffffffffffff16815260200180602001838103835286818151815260200191508051906020019080838360005b838110156116165780820151818401526020810190506115fb565b50505050905090810190601f1680156116435780820380516001836020036101000a031916815260200191505b50838103825284818151815260200191508051906020019080838360005b8381101561167c578082015181840152602081019050611661565b50505050905090810190601f1680156116a95780820380516001836020036101000a031916815260200191505b50965050505050505060405180910390a15050565b60008060008060009054906101000a900473ffffffffffffffffffffffffffffffffffffffff1673ffffffffffffffffffffffffffffffffffffffff163373ffffffffffffffffffffffffffffffffffffffff1614611768576040517f08c379a0000000000000000000000000000000000000000000000000000000008152600401808060200182810382526032815260200180611ef56032913960400191505060405180910390fd5b600c600085815260200190815260200160002060010154600c600086815260200190815260200160002060020154600c6000878152602001908152602001600020600301549250925092509193909250565b6000600b54905090565b6000600754905090565b60095481565b6000600954905090565b60008060009054906101000a900473ffffffffffffffffffffffffffffffffffffffff1673ffffffffffffffffffffffffffffffffffffffff163373ffffffffffffffffffffffffffffffffffffffff161461183957600080fd5b6007546005541115611896576040517f08c379a000000000000000000000000000000000000000000000000000000000815260040180806020018281038252603d815260200180611fba603d913960400191505060405180910390fd5b60006004541161190e576040517f08c379a000000000000000000000000000000000000000000000000000000000815260040180806020018281038252601f8152602001807f5468657265206973206e6f206d696c6b20617661696c61626c65206e6f772e0081525060200191505060405180910390fd5b60066000600554815260200190815260200160002060030154600454111561199157600660006005548152602001908152602001600020600301546004540360048190555060006006600060055481526020019081526020016000206003018190555060056000815480929190600101919050555061198b6117de565b50611a33565b6006600060055481526020019081526020016000206003015460045414156119f0576000600481905550600060066000600554815260200190815260200160002060030181905550600560008154809291906001019190505550611a32565b60045460066000600554815260200190815260200160002060030154036006600060055481526020019081526020016000206003018190555060006004819055505b5b600554905090565b600a6020528060005260406000206000915090508060000154908060010154908060020154908060030160009054906101000a900460ff16905084565b6000809054906101000a900473ffffffffffffffffffffffffffffffffffffffff1681565b60066020528060005260406000206000915090508060000154908060010160009054906101000a900473ffffffffffffffffffffffffffffffffffffffff16908060020154908060030154905084565b600080821480611b0a5750828283850292508281611b0757fe5b04145b611b1357600080fd5b92915050565b600b548111158015611b64575060016002811115611b3357fe5b600a600083815260200190815260200160002060030160009054906101000a900460ff166002811115611b6257fe5b145b611bb9576040517f08c379a0000000000000000000000000000000000000000000000000000000008152600401808060200182810382526040815260200180611f7a6040913960400191505060405180910390fd5b60006008600084815260200190815260200160002060020160009054906101000a900473ffffffffffffffffffffffffffffffffffffffff16905060006064600a600085815260200190815260200160002060020154029050600160009054906101000a900473ffffffffffffffffffffffffffffffffffffffff1673ffffffffffffffffffffffffffffffffffffffff1663a9059cbb83836040518363ffffffff1660e01b8152600401808373ffffffffffffffffffffffffffffffffffffffff1673ffffffffffffffffffffffffffffffffffffffff16815260200182815260200192505050602060405180830381600087803b158015611cbb57600080fd5b505af1158015611ccf573d6000803e3d6000fd5b505050506040513d6020811015611ce557600080fd5b8101908080519060200190929190505050506002600a600085815260200190815260200160002060030160006101000a81548160ff02191690836002811115611d2a57fe5b021790555082600c600086815260200190815260200160002060000181905550600a600084815260200190815260200160002060020154600c60008681526020019081526020016000206002018190555080600c6000868152602001908152602001600020600301819055507fa8e6f9f627e4d2eb0f2887148343c7db7d11e76bdf6b93363126267954a42a518484604051808381526020018281526020019250505060405180910390a150505050565b828054600181600116156101000203166002900490600052602060002090601f016020900481019282601f10611e1c57805160ff1916838001178555611e4a565b82800160010185558215611e4a579182015b82811115611e49578251825591602001919060010190611e2e565b5b509050611e579190611e5b565b5090565b611e7d91905b80821115611e79576000816000905550600101611e61565b5090565b9056fe506c6561736520656e74657220612076616c6964206d696c6b696e672061637469766974792077686f73652073746174757320697320535441525445442e506c6561736520656e74657220612076616c6964206d696c6b696e6720616374697669747920756e64657220796f7572206e616d652e4f6e6c792074686520636f6e7472616374206f776e65722063616e20636865636b207061796d656e742064657461696c732e526571756972657320746865206465706c6f796564204175746f6d617469635061796d656e7420636f6e747261637420746f20686f6c64206d6f726520746f6b656e73207468616e207265717565737465642e506c6561736520656e74657220612076616c6964206d696c6b696e672061637469766974792077686f73652073746174757320697320434f4d504c455445442e54686520696e7665746d656e7420494420656e74657272656420657863656564732074686520746f74616c20696e766573746d656e7420636f756e742ea265627a7a723158201fc7a80a56b38f1bd46c7a37d17ebc3856b277e7f4fa7bb2ce47744d6690438764736f6c63430005100032",
  "source": "// SPDX-License-Identifier: <SPDX-License>\n/**\n * Functionalities:\n * 1. Register a list of farmers, their names,Ethereum addresses (for payment), locations, number of milking activities.\n * 2. Each milking activity is a struct containing: id, farmer id, milking status.\n * 3. Milking status has 3 possible values: STARTED, COMPLETED, PAID; only COMPLETED milking activities can be paid and changed to PAID. Payment amount for milking activities is calculated by quantity * pricePerKilo.\n * 3. Multiple investors can deposit money to the smart contract. The totalMilk is distributed to investors based on amount of their investments. The investments are satisfied on a first-come, first-serve basis. Satisfied investments are removed from the storage.\n * 4. Farm token is used for investment and payment to farmers. An investor can purchase Farm tokens with Ethereum. Investors are allowed to withdraw.\n * 5. Corresponding events are emitted.\n**/\n\npragma solidity >=0.4.22;\n\nimport \"./FarmToken.sol\";\n\ncontract AutomaticPayment {\n    address public admin;\n    FarmToken public tokenContract;\n    uint public tokenPrice; // in Wei\n    uint public tokenSold;\n    uint constant pricePerKilo = 100; // in token per kilo\n    uint totalMilk;\n    uint investmentToSatisfy = 1; // default value; automatically updated after milk is distributed by calling the distributeMilk function\n    \n    enum MilkingStatus {\n        STARTED,\n        COMPLETED,\n        PAID\n    }\n    \n    struct Investment {\n        uint id;\n        address investorAddr;\n        uint amount; // amount of Wei invested\n        uint expectation; // how much milk is expected (in kilo)\n    }\n\n    struct Farmer {\n        uint id;\n        string name;\n        address addr;\n        string location;\n        uint milking_count;\n    }\n\n    struct MilkingActivity {\n        uint id;\n        uint farmerID;\n        uint quantity;\n        MilkingStatus status;\n    }\n    \n    struct Payment {\n        uint milkingID;\n        uint farmerID;\n        uint quantity;\n        uint payAmount;\n    }\n    \n    mapping (uint => Investment) public investments;\n    uint public investmentCount;\n    \n    mapping (uint => Farmer) public farmers; // store Farmers\n    uint public farmerCount;\n\n    mapping (uint => MilkingActivity) public milking;\n    uint public milkingCount;\n    \n    mapping (uint => Payment) public payments;\n    \n    event NewInvestment (\n        uint amount\n    );\n    \n    event FarmerAdded (\n        uint id,\n        string name,\n        address addr,\n        string location\n    );\n    \n    event MilkingAdded (\n        uint id,\n        uint farmerID,\n        uint quantity,\n        MilkingStatus status\n    );\n    \n    event MilkingUpdated (\n        uint id,\n        uint farmerID,\n        uint quantity,\n        MilkingStatus status\n    );\n    \n    event NewPayment (\n        uint farmerID,\n        uint milkingID\n    );\n\n    constructor(FarmToken _tokenContract, uint _tokenPrice) public {\n        admin = msg.sender;\n        tokenContract = _tokenContract;\n        tokenPrice = _tokenPrice;\n    }\n\n    function multiply(uint x, uint y) internal pure returns (uint z) {\n        require(y == 0 || (z = x * y) / y == x);\n    }\n\n    // buyTokens creates new investments in Farm tokens for the caller of the function\n    function buyTokens(uint _numOfTokens) public payable {\n        require(\n            msg.value == multiply(_numOfTokens, tokenPrice)\n        );\n\n        require(\n            // does not trigger the actual token transfer from this contract address to the investor\n            tokenContract.balanceOf(address(this)) >= _numOfTokens,\n            \"Requires the deployed AutomaticPayment contract to hold more tokens than requested.\"\n        );\n\n        tokenSold += _numOfTokens; // keep track of tokens that are sold\n\n        // update investment details\n        investmentCount++;\n        investments[investmentCount].investorAddr = msg.sender;\n        investments[investmentCount].amount = _numOfTokens;\n        investments[investmentCount].expectation = _numOfTokens/pricePerKilo; // assuming all integer values\n\n        emit NewInvestment(_numOfTokens);\n    }\n\n    function getTokenBalance(address _addr) external view returns(uint) {\n        return tokenContract.balanceOf(_addr);\n    }\n    \n    // allow multiple investors to invest in Ether/Wei\n    // function invest(uint _amount) external payable {\n    //     require(\n    //         msg.value == _amount\n    //     );\n        \n    //     investmentCount++;\n    //     investments[investmentCount].investorAddr = msg.sender;\n    //     investments[investmentCount].amount = _amount;\n    //     investments[investmentCount].expectation = _amount/pricePerKilo; // assuming all integer values\n        \n    //     emit NewInvestment(_amount);\n    // }\n\n    function getInvestmentCount() external view returns (uint) {\n        return investmentCount;\n    }\n\n    function getInvestment(uint _investmentID) external view \n        returns (\n            address investor,\n            uint amount,\n            uint expectation\n        ) {\n            return (investments[_investmentID].investorAddr, investments[_investmentID].amount, investments[_investmentID].expectation);\n    }\n\n    // investors can choose to withdraw investments in Farm token \n    function withdrawInvestment(uint _investmentID, uint _amount) public {\n        require(\n            investments[_investmentID].investorAddr == msg.sender\n        );\n\n        require(\n            investments[_investmentID].amount >= _amount\n        );\n\n        // withdrawal amount paid back to corresponding investor in Farm token\n        address payable investor = msg.sender;\n        // address payable investor = payable(msg.sender); // for later solidity versions\n        tokenContract.transfer(investor, _amount);\n\n        // investment details updated\n        investments[_investmentID].amount -= _amount;\n    }\n\n    function contractBalance() external view returns (uint){\n        return address(this).balance;\n    }\n\n    function addFarmer (string memory _name, string memory _location) public {\n        farmerCount++;\n        farmers[farmerCount] = Farmer(farmerCount, _name, msg.sender, _location, 0);\n        \n        emit FarmerAdded(farmerCount, _name, msg.sender, _location);\n    }\n\n    function getFarmerCount() external view returns (uint) {\n        return farmerCount;\n    }\n\n    function addMilkingActivity (uint _farmerID) public {\n        milkingCount++;\n        milking[milkingCount] = MilkingActivity(milkingCount, _farmerID, 0, MilkingStatus.STARTED); // update milking\n        \n        emit MilkingAdded(milkingCount, _farmerID, 0, MilkingStatus.STARTED);\n    }\n\n    function getMilkingCount() external view returns (uint) {\n        return milkingCount;\n    }\n    \n    // only farmer of a particular milking activity can update its status\n    // only milking activities that are STARTED can be updated to COMPLETED\n    function updateMilkingByID (uint _milkingID, uint _farmerID, uint _quantity) public {\n        require(\n            milking[_milkingID].farmerID == _farmerID,\n            \"Please enter a valid milking activity under your name.\"\n        );\n        \n        require(\n            milking[_milkingID].status == MilkingStatus.STARTED,\n            \"Please enter a valid milking activity whose status is STARTED.\"\n        );\n        \n        milking[_milkingID].quantity = _quantity;\n        milking[_milkingID].status = MilkingStatus.COMPLETED;\n        totalMilk = totalMilk + _quantity; // update totalMilk for distribution\n        \n        payFarmer(_farmerID, _milkingID);\n        \n        emit MilkingUpdated(milkingCount, _farmerID, _quantity, MilkingStatus.STARTED);\n    }\n\n    function getTotalMilk() external view returns (uint) {\n        return totalMilk;\n    }\n\n    // called automatically when the status of a milking activity becomes COMPLETED\n    function payFarmer(uint _farmerID, uint _milkingID) private {\n        require(\n            _milkingID <= milkingCount &&\n            milking[_milkingID].status == MilkingStatus.COMPLETED,\n            \"Please enter a valid milking activity whose status is COMPLETED.\"\n        );\n        \n        address payable recipient = address(uint160(farmers[_farmerID].addr));\n        // address payable recipient = payable(farmers[_farmerID].addr); // for later solidity versions\n        uint amount = milking[_milkingID].quantity * pricePerKilo;\n        \n        // recipient.transfer(amount);\n        tokenContract.transfer(recipient, amount);\n        milking[_milkingID].status = MilkingStatus.PAID;\n        \n        payments[_farmerID].milkingID = _milkingID;\n        payments[_farmerID].quantity = milking[_milkingID].quantity;\n        payments[_farmerID].payAmount = amount;\n        \n        emit NewPayment(_farmerID, _milkingID);\n    }\n    \n    function viewPayment(uint _milkingID) external view \n        returns (\n            uint,\n            uint,\n            uint\n        ) \n    {\n        require(\n            msg.sender == admin,\n            \"Only the contract owner can check payment details.\"\n        );\n        \n        return (payments[_milkingID].farmerID, payments[_milkingID].quantity, payments[_milkingID].payAmount);\n    }\n    \n    // called by the contract owner after collecting a number of investments and some quantity of milk\n    // returns the next investmentToSatisfy and totalMilk remaining \n    // always distribute from the first investment\n    function distributeMilk() public returns(uint) {\n        require(\n            msg.sender == admin\n        );\n        \n        require(\n            investmentToSatisfy <= investmentCount,\n            \"The invetment ID enterred exceeds the total investment count.\"\n        );\n        \n        require(\n            totalMilk > 0,\n            \"There is no milk available now.\"\n        );\n        \n        if (totalMilk > investments[investmentToSatisfy].expectation) {\n            totalMilk = totalMilk - investments[investmentToSatisfy].expectation;\n            investments[investmentToSatisfy].expectation = 0; // set to 0 as expectation is satisfied\n            investmentToSatisfy++;\n            \n            distributeMilk(); // if there is remaning milk, process the next investment \n            \n        } else if (totalMilk == investments[investmentToSatisfy].expectation) {\n            totalMilk = 0;\n            investments[investmentToSatisfy].expectation = 0;\n            investmentToSatisfy++;\n        } else {\n            investments[investmentToSatisfy].expectation = investments[investmentToSatisfy].expectation - totalMilk;\n            totalMilk = 0;\n        }\n        \n        return investmentToSatisfy; //return the id of the next investmentToSatisfy\n    }\n\n}\n",
  "sourcePath": "/home/yih/Documents/work/beston/dairy-provenance/contracts/AutomaticPayment.sol",
  "compiler": {
    "name": "solc",
    "version": "0.5.16+commit.9c3226ce.Emscripten.clang"
  },
  "schemaVersion": "3.4.1",
  "updatedAt": "2021-07-14T03:01:39.299Z",
  "networkType": "ethereum",
  "devdoc": {
    "methods": {}
  },
  "userdoc": {
    "methods": {}
  }
}