{
  "contractName": "AutomaticInvoice",
  "abi": [
    {
      "inputs": [],
      "payable": false,
      "stateMutability": "nonpayable",
      "type": "constructor"
    },
    {
      "anonymous": false,
      "inputs": [
        {
          "indexed": false,
          "internalType": "uint256",
          "name": "carrierID",
          "type": "uint256"
        },
        {
          "indexed": false,
          "internalType": "string",
          "name": "name",
          "type": "string"
        }
      ],
      "name": "CarrierAdded",
      "type": "event"
    },
    {
      "anonymous": false,
      "inputs": [
        {
          "indexed": false,
          "internalType": "uint256",
          "name": "invioceID",
          "type": "uint256"
        },
        {
          "indexed": false,
          "internalType": "uint256",
          "name": "shipmentID",
          "type": "uint256"
        },
        {
          "indexed": false,
          "internalType": "uint256",
          "name": "supermarketID",
          "type": "uint256"
        },
        {
          "indexed": false,
          "internalType": "uint256",
          "name": "dateDue",
          "type": "uint256"
        },
        {
          "indexed": false,
          "internalType": "uint256",
          "name": "amountDue",
          "type": "uint256"
        }
      ],
      "name": "InvoiceAdded",
      "type": "event"
    },
    {
      "anonymous": false,
      "inputs": [
        {
          "indexed": false,
          "internalType": "uint256",
          "name": "shipmentID",
          "type": "uint256"
        },
        {
          "indexed": false,
          "internalType": "uint256",
          "name": "supermarketID",
          "type": "uint256"
        },
        {
          "indexed": false,
          "internalType": "enum AutomaticInvoice.ShipmentStatus",
          "name": "status",
          "type": "uint8"
        }
      ],
      "name": "ShipmentAdded",
      "type": "event"
    },
    {
      "anonymous": false,
      "inputs": [
        {
          "indexed": false,
          "internalType": "uint256",
          "name": "shipmentID",
          "type": "uint256"
        }
      ],
      "name": "ShipmentCancelled",
      "type": "event"
    },
    {
      "anonymous": false,
      "inputs": [
        {
          "indexed": false,
          "internalType": "uint256",
          "name": "shipmentID",
          "type": "uint256"
        },
        {
          "indexed": false,
          "internalType": "uint256",
          "name": "supermarketID",
          "type": "uint256"
        },
        {
          "indexed": false,
          "internalType": "enum AutomaticInvoice.ShipmentStatus",
          "name": "status",
          "type": "uint8"
        }
      ],
      "name": "ShipmentUpdated",
      "type": "event"
    },
    {
      "anonymous": false,
      "inputs": [
        {
          "indexed": false,
          "internalType": "uint256",
          "name": "supermarketID",
          "type": "uint256"
        },
        {
          "indexed": false,
          "internalType": "string",
          "name": "name",
          "type": "string"
        },
        {
          "indexed": false,
          "internalType": "address",
          "name": "addr",
          "type": "address"
        }
      ],
      "name": "SupermarketAdded",
      "type": "event"
    },
    {
      "anonymous": false,
      "inputs": [
        {
          "indexed": false,
          "internalType": "uint256",
          "name": "supermarketID",
          "type": "uint256"
        },
        {
          "indexed": false,
          "internalType": "string",
          "name": "name",
          "type": "string"
        },
        {
          "indexed": false,
          "internalType": "address",
          "name": "addr",
          "type": "address"
        }
      ],
      "name": "SupermarketUpdated",
      "type": "event"
    },
    {
      "constant": true,
      "inputs": [],
      "name": "admin",
      "outputs": [
        {
          "internalType": "address",
          "name": "",
          "type": "address"
        }
      ],
      "payable": false,
      "stateMutability": "view",
      "type": "function"
    },
    {
      "constant": true,
      "inputs": [],
      "name": "carrierCount",
      "outputs": [
        {
          "internalType": "uint256",
          "name": "",
          "type": "uint256"
        }
      ],
      "payable": false,
      "stateMutability": "view",
      "type": "function"
    },
    {
      "constant": true,
      "inputs": [
        {
          "internalType": "uint256",
          "name": "",
          "type": "uint256"
        }
      ],
      "name": "carriers",
      "outputs": [
        {
          "internalType": "uint256",
          "name": "id",
          "type": "uint256"
        },
        {
          "internalType": "string",
          "name": "name",
          "type": "string"
        },
        {
          "internalType": "address",
          "name": "addr",
          "type": "address"
        }
      ],
      "payable": false,
      "stateMutability": "view",
      "type": "function"
    },
    {
      "constant": true,
      "inputs": [],
      "name": "invoiceCount",
      "outputs": [
        {
          "internalType": "uint256",
          "name": "",
          "type": "uint256"
        }
      ],
      "payable": false,
      "stateMutability": "view",
      "type": "function"
    },
    {
      "constant": true,
      "inputs": [
        {
          "internalType": "uint256",
          "name": "",
          "type": "uint256"
        }
      ],
      "name": "invoices",
      "outputs": [
        {
          "internalType": "uint256",
          "name": "invioceID",
          "type": "uint256"
        },
        {
          "internalType": "uint256",
          "name": "shipmentID",
          "type": "uint256"
        },
        {
          "internalType": "uint256",
          "name": "supermarketID",
          "type": "uint256"
        },
        {
          "internalType": "uint256",
          "name": "dateDue",
          "type": "uint256"
        },
        {
          "internalType": "uint256",
          "name": "amountDue",
          "type": "uint256"
        }
      ],
      "payable": false,
      "stateMutability": "view",
      "type": "function"
    },
    {
      "constant": true,
      "inputs": [],
      "name": "shipmentCount",
      "outputs": [
        {
          "internalType": "uint256",
          "name": "",
          "type": "uint256"
        }
      ],
      "payable": false,
      "stateMutability": "view",
      "type": "function"
    },
    {
      "constant": true,
      "inputs": [
        {
          "internalType": "uint256",
          "name": "",
          "type": "uint256"
        }
      ],
      "name": "shipments",
      "outputs": [
        {
          "internalType": "uint256",
          "name": "shipmentID",
          "type": "uint256"
        },
        {
          "internalType": "uint256",
          "name": "carrierID",
          "type": "uint256"
        },
        {
          "internalType": "uint256",
          "name": "supermarketID",
          "type": "uint256"
        },
        {
          "internalType": "enum AutomaticInvoice.ShipmentStatus",
          "name": "status",
          "type": "uint8"
        }
      ],
      "payable": false,
      "stateMutability": "view",
      "type": "function"
    },
    {
      "constant": true,
      "inputs": [],
      "name": "supermarketCount",
      "outputs": [
        {
          "internalType": "uint256",
          "name": "",
          "type": "uint256"
        }
      ],
      "payable": false,
      "stateMutability": "view",
      "type": "function"
    },
    {
      "constant": true,
      "inputs": [
        {
          "internalType": "uint256",
          "name": "",
          "type": "uint256"
        }
      ],
      "name": "supermarkets",
      "outputs": [
        {
          "internalType": "uint256",
          "name": "id",
          "type": "uint256"
        },
        {
          "internalType": "string",
          "name": "name",
          "type": "string"
        },
        {
          "internalType": "address",
          "name": "addr",
          "type": "address"
        }
      ],
      "payable": false,
      "stateMutability": "view",
      "type": "function"
    },
    {
      "constant": false,
      "inputs": [
        {
          "internalType": "string",
          "name": "_name",
          "type": "string"
        }
      ],
      "name": "addSupermarkets",
      "outputs": [],
      "payable": false,
      "stateMutability": "nonpayable",
      "type": "function"
    },
    {
      "constant": false,
      "inputs": [
        {
          "internalType": "uint256",
          "name": "_supermarketID",
          "type": "uint256"
        },
        {
          "internalType": "string",
          "name": "_name",
          "type": "string"
        },
        {
          "internalType": "address",
          "name": "_addr",
          "type": "address"
        }
      ],
      "name": "updateSupermarketByID",
      "outputs": [],
      "payable": false,
      "stateMutability": "nonpayable",
      "type": "function"
    },
    {
      "constant": true,
      "inputs": [
        {
          "internalType": "uint256",
          "name": "_supermarketID",
          "type": "uint256"
        }
      ],
      "name": "viewSupermarket",
      "outputs": [
        {
          "internalType": "string",
          "name": "",
          "type": "string"
        },
        {
          "internalType": "address",
          "name": "",
          "type": "address"
        }
      ],
      "payable": false,
      "stateMutability": "view",
      "type": "function"
    },
    {
      "constant": false,
      "inputs": [
        {
          "internalType": "string",
          "name": "_name",
          "type": "string"
        }
      ],
      "name": "addCarriers",
      "outputs": [],
      "payable": false,
      "stateMutability": "nonpayable",
      "type": "function"
    },
    {
      "constant": false,
      "inputs": [
        {
          "internalType": "uint256",
          "name": "_carrierID",
          "type": "uint256"
        },
        {
          "internalType": "uint256",
          "name": "_supermarketID",
          "type": "uint256"
        }
      ],
      "name": "addShipments",
      "outputs": [],
      "payable": false,
      "stateMutability": "nonpayable",
      "type": "function"
    },
    {
      "constant": false,
      "inputs": [
        {
          "internalType": "uint256",
          "name": "_shipmentID",
          "type": "uint256"
        }
      ],
      "name": "cancelShipment",
      "outputs": [],
      "payable": false,
      "stateMutability": "nonpayable",
      "type": "function"
    },
    {
      "constant": false,
      "inputs": [
        {
          "internalType": "uint256",
          "name": "_shipmentID",
          "type": "uint256"
        },
        {
          "internalType": "uint256",
          "name": "_dateDue",
          "type": "uint256"
        },
        {
          "internalType": "uint256",
          "name": "_amountDue",
          "type": "uint256"
        }
      ],
      "name": "updateShipmentStatus",
      "outputs": [],
      "payable": false,
      "stateMutability": "nonpayable",
      "type": "function"
    },
    {
      "constant": true,
      "inputs": [
        {
          "internalType": "uint256",
          "name": "_shipmentID",
          "type": "uint256"
        }
      ],
      "name": "viewShipment",
      "outputs": [
        {
          "internalType": "uint256",
          "name": "",
          "type": "uint256"
        },
        {
          "internalType": "enum AutomaticInvoice.ShipmentStatus",
          "name": "",
          "type": "uint8"
        }
      ],
      "payable": false,
      "stateMutability": "view",
      "type": "function"
    },
    {
      "constant": true,
      "inputs": [
        {
          "internalType": "uint256",
          "name": "_invoiceID",
          "type": "uint256"
        }
      ],
      "name": "viewInvoice",
      "outputs": [
        {
          "internalType": "uint256",
          "name": "",
          "type": "uint256"
        },
        {
          "internalType": "uint256",
          "name": "",
          "type": "uint256"
        }
      ],
      "payable": false,
      "stateMutability": "view",
      "type": "function"
    }
  ],
  "bytecode": "0x608060405234801561001057600080fd5b50336000806101000a81548173ffffffffffffffffffffffffffffffffffffffff021916908373ffffffffffffffffffffffffffffffffffffffff160217905550611edf806100606000396000f3fe608060405234801561001057600080fd5b50600436106101155760003560e01c8063b68972ea116100a2578063e33f8d9711610071578063e33f8d9714610667578063e7829f5114610685578063f5d786501461076a578063f851a4401461084b578063f9aa607f1461089557610115565b8063b68972ea14610443578063c83edf581461049a578063da6b9aa714610574578063e2be2dfa146105ac57610115565b80634e6d1405116100e95780634e6d1405146102765780637faa7bc7146102d4578063895f746214610302578063aace20b714610344578063b3d5226f1461036257610115565b8062e3e8ef1461011a5780631346f0c4146101385780632ac08a93146101565780632e6807c0146101bb575b600080fd5b6101226108de565b6040518082815260200191505060405180910390f35b6101406108e4565b6040518082815260200191505060405180910390f35b6101826004803603602081101561016c57600080fd5b81019080803590602001909291905050506108ea565b604051808581526020018481526020018381526020018260038111156101a457fe5b60ff16815260200194505050505060405180910390f35b610274600480360360208110156101d157600080fd5b81019080803590602001906401000000008111156101ee57600080fd5b82018360208201111561020057600080fd5b8035906020019184600183028401116401000000008311171561022257600080fd5b91908080601f016020809104026020016040519081016040528093929190818152602001838380828437600081840152601f19601f820116905080830192505050505050509192919290505050610927565b005b6102a26004803603602081101561028c57600080fd5b8101908080359060200190929190505050610a9b565b604051808681526020018581526020018481526020018381526020018281526020019550505050505060405180910390f35b610300600480360360208110156102ea57600080fd5b8101908080359060200190929190505050610ad1565b005b6103426004803603606081101561031857600080fd5b81019080803590602001909291908035906020019092919080359060200190929190505050610ca5565b005b61034c610fc2565b6040518082815260200191505060405180910390f35b61038e6004803603602081101561037857600080fd5b8101908080359060200190929190505050610fc8565b60405180848152602001806020018373ffffffffffffffffffffffffffffffffffffffff1673ffffffffffffffffffffffffffffffffffffffff168152602001828103825284818151815260200191508051906020019080838360005b838110156104065780820151818401526020810190506103eb565b50505050905090810190601f1680156104335780820380516001836020036101000a031916815260200191505b5094505050505060405180910390f35b61046f6004803603602081101561045957600080fd5b81019080803590602001909291905050506110aa565b6040518083815260200182600381111561048557fe5b60ff1681526020019250505060405180910390f35b6104c6600480360360208110156104b057600080fd5b81019080803590602001909291905050506110f1565b60405180806020018373ffffffffffffffffffffffffffffffffffffffff1673ffffffffffffffffffffffffffffffffffffffff168152602001828103825284818151815260200191508051906020019080838360005b8381101561053857808201518184015260208101905061051d565b50505050905090810190601f1680156105655780820380516001836020036101000a031916815260200191505b50935050505060405180910390f35b6105aa6004803603604081101561058a57600080fd5b8101908080359060200190929190803590602001909291905050506111e7565b005b610665600480360360208110156105c257600080fd5b81019080803590602001906401000000008111156105df57600080fd5b8201836020820111156105f157600080fd5b8035906020019184600183028401116401000000008311171561061357600080fd5b91908080601f016020809104026020016040519081016040528093929190818152602001838380828437600081840152601f19601f82011690508083019250505050505050919291929050505061139d565b005b61066f6115a0565b6040518082815260200191505060405180910390f35b6107686004803603606081101561069b57600080fd5b8101908080359060200190929190803590602001906401000000008111156106c257600080fd5b8201836020820111156106d457600080fd5b803590602001918460018302840111640100000000831117156106f657600080fd5b91908080601f016020809104026020016040519081016040528093929190818152602001838380828437600081840152601f19601f820116905080830192505050505050509192919290803573ffffffffffffffffffffffffffffffffffffffff1690602001909291905050506115a6565b005b6107966004803603602081101561078057600080fd5b81019080803590602001909291905050506117a8565b60405180848152602001806020018373ffffffffffffffffffffffffffffffffffffffff1673ffffffffffffffffffffffffffffffffffffffff168152602001828103825284818151815260200191508051906020019080838360005b8381101561080e5780820151818401526020810190506107f3565b50505050905090810190601f16801561083b5780820380516001836020036101000a031916815260200191505b5094505050505060405180910390f35b61085361188a565b604051808273ffffffffffffffffffffffffffffffffffffffff1673ffffffffffffffffffffffffffffffffffffffff16815260200191505060405180910390f35b6108c1600480360360208110156108ab57600080fd5b81019080803590602001909291905050506118af565b604051808381526020018281526020019250505060405180910390f35b60025481565b60045481565b60076020528060005260406000206000915090508060000154908060010154908060020154908060030160009054906101000a900460ff16905084565b600660008154809291906001019190505550604051806060016040528060065481526020018281526020013373ffffffffffffffffffffffffffffffffffffffff168152506005600060065481526020019081526020016000206000820151816000015560208201518160010190805190602001906109a7929190611b98565b5060408201518160020160006101000a81548173ffffffffffffffffffffffffffffffffffffffff021916908373ffffffffffffffffffffffffffffffffffffffff1602179055509050507fea428bb77b9b43e2f4d885973af0988af8784eb7a0dd069bd90fcbd25ddb9f9b600654826040518083815260200180602001828103825283818151815260200191508051906020019080838360005b83811015610a5d578082015181840152602081019050610a42565b50505050905090810190601f168015610a8a5780820380516001836020036101000a031916815260200191505b50935050505060405180910390a150565b60036020528060005260406000206000915090508060000154908060010154908060020154908060030154908060040154905085565b600560006007600084815260200190815260200160002060010154815260200190815260200160002060020160009054906101000a900473ffffffffffffffffffffffffffffffffffffffff1673ffffffffffffffffffffffffffffffffffffffff163373ffffffffffffffffffffffffffffffffffffffff1614610ba1576040517f08c379a0000000000000000000000000000000000000000000000000000000008152600401808060200182810382526034815260200180611ddf6034913960400191505060405180910390fd5b60006003811115610bae57fe5b6007600083815260200190815260200160002060030160009054906101000a900460ff166003811115610bdd57fe5b14610c33576040517f08c379a000000000000000000000000000000000000000000000000000000000815260040180806020018281038252603a815260200180611e13603a913960400191505060405180910390fd5b60036007600083815260200190815260200160002060030160006101000a81548160ff02191690836003811115610c6657fe5b02179055507f6c369efdf73d335dd2773310e330a52db609150879cf9b2a1969b6eaf80b0e62816040518082815260200191505060405180910390a150565b600560006007600086815260200190815260200160002060010154815260200190815260200160002060020160009054906101000a900473ffffffffffffffffffffffffffffffffffffffff1673ffffffffffffffffffffffffffffffffffffffff163373ffffffffffffffffffffffffffffffffffffffff1614610d75576040517f08c379a0000000000000000000000000000000000000000000000000000000008152600401808060200182810382526042815260200180611d9d6042913960600191505060405180910390fd5b60006003811115610d8257fe5b6007600085815260200190815260200160002060030160009054906101000a900460ff166003811115610db157fe5b1480610df6575060016003811115610dc557fe5b6007600085815260200190815260200160002060030160009054906101000a900460ff166003811115610df457fe5b145b610e4b576040517f08c379a0000000000000000000000000000000000000000000000000000000008152600401808060200182810382526037815260200180611e4d6037913960400191505060405180910390fd5b60006003811115610e5857fe5b6007600085815260200190815260200160002060030160009054906101000a900460ff166003811115610e8757fe5b1415610eca5760016007600085815260200190815260200160002060030160006101000a81548160ff02191690836003811115610ec057fe5b0217905550610f51565b60016003811115610ed757fe5b6007600085815260200190815260200160002060030160009054906101000a900460ff166003811115610f0657fe5b1415610f5057610f178383836119b9565b60026007600085815260200190815260200160002060030160006101000a81548160ff02191690836003811115610f4a57fe5b02179055505b5b7f6ccbf966cf307b4a3956002d8662fdcd5476941a2b695eb5aeaa168af9f08693836007600086815260200190815260200160002060020154600260405180848152602001838152602001826003811115610fa857fe5b60ff168152602001935050505060405180910390a1505050565b60085481565b6001602052806000526040600020600091509050806000015490806001018054600181600116156101000203166002900480601f01602080910402602001604051908101604052809291908181526020018280546001816001161561010002031660029004801561107a5780601f1061104f5761010080835404028352916020019161107a565b820191906000526020600020905b81548152906001019060200180831161105d57829003601f168201915b5050505050908060020160009054906101000a900473ffffffffffffffffffffffffffffffffffffffff16905083565b60008060076000848152602001908152602001600020600201546007600085815260200190815260200160002060030160009054906101000a900460ff1691509150915091565b60606000600160008481526020019081526020016000206001016001600085815260200190815260200160002060020160009054906101000a900473ffffffffffffffffffffffffffffffffffffffff16818054600181600116156101000203166002900480601f0160208091040260200160405190810160405280929190818152602001828054600181600116156101000203166002900480156111d75780601f106111ac576101008083540402835291602001916111d7565b820191906000526020600020905b8154815290600101906020018083116111ba57829003601f168201915b5050505050915091509150915091565b6005600083815260200190815260200160002060020160009054906101000a900473ffffffffffffffffffffffffffffffffffffffff1673ffffffffffffffffffffffffffffffffffffffff163373ffffffffffffffffffffffffffffffffffffffff16146112a1576040517f08c379a0000000000000000000000000000000000000000000000000000000008152600401808060200182810382526027815260200180611e846027913960400191505060405180910390fd5b60086000815480929190600101919050555060405180608001604052806008548152602001838152602001828152602001600060038111156112df57fe5b81525060076000600854815260200190815260200160002060008201518160000155602082015181600101556040820151816002015560608201518160030160006101000a81548160ff0219169083600381111561133957fe5b02179055509050507f303cc8119b5ee729445f6de6e639adcd18f0616ac27a754f49292e18c216bd6b6008548260006040518084815260200183815260200182600381111561138457fe5b60ff168152602001935050505060405180910390a15050565b6005600254106113f8576040517f08c379a0000000000000000000000000000000000000000000000000000000008152600401808060200182810382526023815260200180611d7a6023913960400191505060405180910390fd5b600260008154809291906001019190505550604051806060016040528060025481526020018281526020013373ffffffffffffffffffffffffffffffffffffffff16815250600160006002548152602001908152602001600020600082015181600001556020820151816001019080519060200190611478929190611b98565b5060408201518160020160006101000a81548173ffffffffffffffffffffffffffffffffffffffff021916908373ffffffffffffffffffffffffffffffffffffffff1602179055509050507f22b7bfab92c1f5ed7f66f26657927100ab92c26ec98bfe28edcc75bca0280344600254823360405180848152602001806020018373ffffffffffffffffffffffffffffffffffffffff1673ffffffffffffffffffffffffffffffffffffffff168152602001828103825284818151815260200191508051906020019080838360005b83811015611561578082015181840152602081019050611546565b50505050905090810190601f16801561158e5780820380516001836020036101000a031916815260200191505b5094505050505060405180910390a150565b60065481565b6000809054906101000a900473ffffffffffffffffffffffffffffffffffffffff1673ffffffffffffffffffffffffffffffffffffffff163373ffffffffffffffffffffffffffffffffffffffff161461164b576040517f08c379a0000000000000000000000000000000000000000000000000000000008152600401808060200182810382526034815260200180611cbe6034913960400191505060405180910390fd5b81600160008581526020019081526020016000206001019080519060200190611675929190611c18565b50806001600085815260200190815260200160002060020160006101000a81548173ffffffffffffffffffffffffffffffffffffffff021916908373ffffffffffffffffffffffffffffffffffffffff1602179055507f04dc01e1192d3d7035ea3bfe02a0f31f455c9a13a66c4e5424196eea285a1a7583838360405180848152602001806020018373ffffffffffffffffffffffffffffffffffffffff1673ffffffffffffffffffffffffffffffffffffffff168152602001828103825284818151815260200191508051906020019080838360005b8381101561176757808201518184015260208101905061174c565b50505050905090810190601f1680156117945780820380516001836020036101000a031916815260200191505b5094505050505060405180910390a1505050565b6005602052806000526040600020600091509050806000015490806001018054600181600116156101000203166002900480601f01602080910402602001604051908101604052809291908181526020018280546001816001161561010002031660029004801561185a5780601f1061182f5761010080835404028352916020019161185a565b820191906000526020600020905b81548152906001019060200180831161183d57829003601f168201915b5050505050908060020160009054906101000a900473ffffffffffffffffffffffffffffffffffffffff16905083565b6000809054906101000a900473ffffffffffffffffffffffffffffffffffffffff1681565b6000803373ffffffffffffffffffffffffffffffffffffffff16600160006003600087815260200190815260200160002060020154815260200190815260200160002060020160009054906101000a900473ffffffffffffffffffffffffffffffffffffffff1673ffffffffffffffffffffffffffffffffffffffff1614611982576040517f08c379a0000000000000000000000000000000000000000000000000000000008152600401808060200182810382526035815260200180611d456035913960400191505060405180910390fd5b6003600084815260200190815260200160002060030154600360008581526020019081526020016000206004015491509150915091565b600560006007600086815260200190815260200160002060010154815260200190815260200160002060020160009054906101000a900473ffffffffffffffffffffffffffffffffffffffff1673ffffffffffffffffffffffffffffffffffffffff163373ffffffffffffffffffffffffffffffffffffffff1614611a89576040517f08c379a0000000000000000000000000000000000000000000000000000000008152600401808060200182810382526053815260200180611cf26053913960600191505060405180910390fd5b6004600081548092919060010191905055506040518060a001604052806004548152602001848152602001600760008681526020019081526020016000206002015481526020018381526020018281525060036000600454815260200190815260200160002060008201518160000155602082015181600101556040820151816002015560608201518160030155608082015181600401559050507fbd6cfff32e0ea50047145ba87e31adbc1e8d884d455215c94357a0648e8ff0d16004548460076000878152602001908152602001600020600201548585604051808681526020018581526020018481526020018381526020018281526020019550505050505060405180910390a1505050565b828054600181600116156101000203166002900490600052602060002090601f016020900481019282601f10611bd957805160ff1916838001178555611c07565b82800160010185558215611c07579182015b82811115611c06578251825591602001919060010190611beb565b5b509050611c149190611c98565b5090565b828054600181600116156101000203166002900490600052602060002090601f016020900481019282601f10611c5957805160ff1916838001178555611c87565b82800160010185558215611c87579182015b82811115611c86578251825591602001919060010190611c6b565b5b509050611c949190611c98565b5090565b611cba91905b80821115611cb6576000816000905550600101611c9e565b5090565b9056fe4f6e6c7920636f6e7472616374206f776e65722063616e2075706461746520612073757065726d61726b65742773206e616d652e4f6e6c792074686520636f72726573706f6e64696e6720636172726965722063616e20697373756520616e20696e766f69636520746f206120636f72726573706f6e64696e672073757065726d61726b65742e506c6561736520656e74657220612076616c696420696e766f69636520494420666f7220796f75722073757065726d61726b65742e4d6178206e756d626572206f662073757065726d61726b65747320726561636865642e4f6e6c792074686520636f72726573706f6e64696e6720636172726965722063616e207570646174652074686520737461747573206f6620736869706d656e74732e4f6e6c792074686520636f72726573706f6e64696e6720636172726965722063616e63656c2074686520736869706d656e74732e5468652074617267657420736869706d656e7420646f65736e2774206578697374206f7220686173206e6f74206265656e20736869707065642e5468652074617267657420736869706d656e7420646f65736e2774206578697374206f7220686173206265656e20696e766f696365642e4f6e6c7920612076616c696420636172726965722063616e2061646420736869706d656e74732ea265627a7a72315820db7cdd70c60c3532c4b91f47578831e459b13c34d9c5a281c8272798e47ea57364736f6c63430005100032",
  "source": "// SPDX-License-Identifier: <SPDX-License>\n/**\n * Functionalities:\n * 1. Each supermarket can have a list of shipments and corresponding invoices.\n * 2. A shipment is initialised by a carrier with a status of INTRANSITION, and only the corresponding carrier can cancel or update status of a shipment.\n * 3. An invoice is automatically issued from a carrier to a supermarket when a shipment's status gets updated to SHIPPED.\n * 4. Once the invoiced is issued, the status of the shipment gets updated to INVOICED.\n * 5. Corresponding events are emitted.\n**/\n\npragma solidity >=0.4.22;\n\ncontract AutomaticInvoice {\n    address public admin;\n    \n    enum ShipmentStatus {\n        INTRANSIT,\n        SHIPPED,\n        INVOICED,\n        CANCELED\n    }\n    \n    struct Supermarket {\n        uint id;\n        string name;\n        address addr;\n    }\n    \n    struct Invoice {\n        uint invioceID;\n        uint shipmentID;\n        uint supermarketID;\n        uint256 dateDue;\n        uint amountDue;\n    }\n    \n    struct Carrier {\n        uint id;\n        string name;\n        address addr;\n    }\n    \n    struct Shipment {\n        uint shipmentID;\n        uint carrierID;\n        uint supermarketID;\n        ShipmentStatus status;\n    }\n    \n    mapping (uint => Supermarket) public supermarkets;\n    uint public supermarketCount;\n    \n    mapping (uint => Invoice) public invoices;\n    uint public invoiceCount;\n    \n    mapping (uint => Carrier) public carriers;\n    uint public carrierCount;\n    \n    mapping (uint => Shipment) public shipments;\n    uint public shipmentCount;\n    \n    event SupermarketAdded (\n        uint supermarketID,\n        string name,\n        address addr\n    );\n    \n    event SupermarketUpdated (\n        uint supermarketID,\n        string name,\n        address addr\n    );\n    \n    event CarrierAdded (\n        uint carrierID,\n        string name\n    );\n    \n    event ShipmentAdded (\n        uint shipmentID,\n        uint supermarketID,\n        ShipmentStatus status\n    );\n    \n    event ShipmentCancelled (\n        uint shipmentID\n    );\n    \n    event ShipmentUpdated (\n        uint shipmentID,\n        uint supermarketID,\n        ShipmentStatus status\n    );\n    \n    event InvoiceAdded (\n        uint invioceID,\n        uint shipmentID,\n        uint supermarketID,\n        uint256 dateDue,\n        uint amountDue\n    );\n\n    constructor() public {\n        admin = msg.sender;\n    }\n    \n    function addSupermarkets (string memory _name) public {\n        require(\n            supermarketCount < 5, // max 5 supermarkets\n            \"Max number of supermarkets reached.\"\n        );\n        \n        supermarketCount++;\n        supermarkets[supermarketCount] = Supermarket(supermarketCount, _name, msg.sender);\n        \n        emit SupermarketAdded(supermarketCount, _name, msg.sender);\n    }\n    \n    // when users register themselves to the contract by mistake, the contract owner corrects supermarket details\n    function updateSupermarketByID (uint _supermarketID, string memory _name, address _addr) public {\n        require(\n            msg.sender == admin,\n            \"Only contract owner can update a supermarket's name.\"\n        );\n        \n        supermarkets[_supermarketID].name = _name;\n        supermarkets[_supermarketID].addr = _addr;\n        \n        emit SupermarketUpdated(_supermarketID, _name, _addr);\n    }\n    \n    function viewSupermarket (uint _supermarketID) external view \n        returns (\n            string memory,\n            address\n        )\n    {\n        return (supermarkets[_supermarketID].name, supermarkets[_supermarketID].addr);\n    }\n    \n    function addCarriers (string memory _name) public {\n        carrierCount++;\n        carriers[carrierCount] = Carrier(carrierCount, _name, msg.sender);\n        \n        emit CarrierAdded(carrierCount, _name);\n    }\n    \n    function addShipments (uint _carrierID, uint _supermarketID) public {\n        require(\n            msg.sender == carriers[_carrierID].addr,\n            \"Only a valid carrier can add shipments.\"\n        );\n        \n        shipmentCount++;\n        shipments[shipmentCount] = Shipment(shipmentCount, _carrierID, _supermarketID, ShipmentStatus.INTRANSIT);\n        \n        emit ShipmentAdded(shipmentCount, _supermarketID, ShipmentStatus.INTRANSIT);\n    }\n    \n    // cancels a shipment and change its status to CANCELED\n    function cancelShipment (uint _shipmentID) public {\n        require(\n            msg.sender == carriers[shipments[_shipmentID].carrierID].addr,\n            \"Only the corresponding carrier cancel the shipments.\"\n        );\n        \n        require(\n            shipments[_shipmentID].status == ShipmentStatus.INTRANSIT,\n            \"The target shipment doesn't exist or has not been shipped.\"\n        );\n        \n        shipments[_shipmentID].status = ShipmentStatus.CANCELED;\n        \n        emit ShipmentCancelled(_shipmentID);\n    }\n    \n    // for shipments that are INTRANSIT, change shipment status to SHIPPED\n    // for shipments that are SHIPPED, create an invoice, and change shipment status to INVOICED\n    function updateShipmentStatus (uint _shipmentID, uint256 _dateDue, uint _amountDue) public {\n        require(\n            msg.sender == carriers[shipments[_shipmentID].carrierID].addr,\n            \"Only the corresponding carrier can update the status of shipments.\"\n        );\n        \n        require(\n            shipments[_shipmentID].status == ShipmentStatus.INTRANSIT ||\n            shipments[_shipmentID].status == ShipmentStatus.SHIPPED,\n            \"The target shipment doesn't exist or has been invoiced.\"\n        );\n        \n        if (shipments[_shipmentID].status == ShipmentStatus.INTRANSIT) {\n            shipments[_shipmentID].status = ShipmentStatus.SHIPPED;\n        } else if (shipments[_shipmentID].status == ShipmentStatus.SHIPPED) {\n            createInvoice(_shipmentID, _dateDue, _amountDue);\n            shipments[_shipmentID].status = ShipmentStatus.INVOICED;\n        }\n        \n        emit ShipmentUpdated(_shipmentID, shipments[_shipmentID].supermarketID, ShipmentStatus.INVOICED);\n    }\n    \n    function viewShipment (uint _shipmentID) external view\n        returns (\n            uint,\n            ShipmentStatus\n        )\n    {\n        return (shipments[_shipmentID].supermarketID, shipments[_shipmentID].status);\n    }\n    \n    // only called by the updateShipmentStatus function\n    function createInvoice (uint _shipmentID, uint256 _dateDue, uint _amountDue) private {\n        require(\n            msg.sender == carriers[shipments[_shipmentID].carrierID].addr,\n            \"Only the corresponding carrier can issue an invoice to a corresponding supermarket.\"\n        );\n        \n        invoiceCount++;\n        invoices[invoiceCount] = Invoice(invoiceCount, _shipmentID, shipments[_shipmentID].supermarketID, _dateDue, _amountDue);\n        \n        emit InvoiceAdded(invoiceCount, _shipmentID, shipments[_shipmentID].supermarketID, _dateDue, _amountDue);\n    }\n    \n    function viewInvoice (uint _invoiceID) external view \n        returns (\n            uint256,\n            uint\n        )\n    {\n        require(\n            supermarkets[invoices[_invoiceID].supermarketID].addr == msg.sender,\n            \"Please enter a valid invoice ID for your supermarket.\"\n        );\n        \n        return (invoices[_invoiceID].dateDue, invoices[_invoiceID].amountDue);\n    }\n\n}\n",
  "sourcePath": "/Users/yininghu/Documents/work/Beston/dairy-provenance/contracts/AutomaticInvoice.sol",
  "compiler": {
    "name": "solc",
    "version": "0.5.16+commit.9c3226ce.Emscripten.clang"
  },
  "schemaVersion": "3.4.1",
  "updatedAt": "2021-06-27T07:16:43.457Z",
  "devdoc": {
    "methods": {}
  },
  "userdoc": {
    "methods": {}
  }
}